{
  "contractName": "BMS",
  "abi": [
    {
      "inputs": [
        {
          "internalType": "string",
          "name": "initMessage",
          "type": "string"
        }
      ],
      "stateMutability": "nonpayable",
      "type": "constructor"
    },
    {
      "anonymous": false,
      "inputs": [
        {
          "indexed": false,
          "internalType": "uint256",
          "name": "pid",
          "type": "uint256"
        },
        {
          "indexed": false,
          "internalType": "string",
          "name": "name",
          "type": "string"
        },
        {
          "indexed": false,
          "internalType": "uint256",
          "name": "price",
          "type": "uint256"
        },
        {
          "indexed": false,
          "internalType": "address",
          "name": "staff",
          "type": "address"
        },
        {
          "indexed": false,
          "internalType": "string",
          "name": "info",
          "type": "string"
        },
        {
          "indexed": false,
          "internalType": "uint256",
          "name": "quantity",
          "type": "uint256"
        }
      ],
      "name": "ServiceCreated",
      "type": "event"
    },
    {
      "anonymous": false,
      "inputs": [
        {
          "indexed": false,
          "internalType": "uint256",
          "name": "oid",
          "type": "uint256"
        },
        {
          "indexed": false,
          "internalType": "address payable",
          "name": "seller",
          "type": "address"
        },
        {
          "indexed": false,
          "internalType": "address payable",
          "name": "buyer",
          "type": "address"
        },
        {
          "indexed": false,
          "internalType": "string",
          "name": "status",
          "type": "string"
        },
        {
          "indexed": false,
          "internalType": "uint256",
          "name": "pid",
          "type": "uint256"
        },
        {
          "indexed": false,
          "internalType": "uint256",
          "name": "quantity",
          "type": "uint256"
        }
      ],
      "name": "ServicePurchased",
      "type": "event"
    },
    {
      "anonymous": false,
      "inputs": [
        {
          "indexed": false,
          "internalType": "uint256",
          "name": "oldAmt",
          "type": "uint256"
        },
        {
          "indexed": false,
          "internalType": "uint256",
          "name": "newAmt",
          "type": "uint256"
        }
      ],
      "name": "UpdatedAmt",
      "type": "event"
    },
    {
      "anonymous": false,
      "inputs": [
        {
          "indexed": false,
          "internalType": "string",
          "name": "oldStr",
          "type": "string"
        },
        {
          "indexed": false,
          "internalType": "string",
          "name": "newStr",
          "type": "string"
        }
      ],
      "name": "UpdatedMessages",
      "type": "event"
    },
    {
      "anonymous": false,
      "inputs": [
        {
          "indexed": false,
          "internalType": "uint256",
          "name": "uid",
          "type": "uint256"
        },
        {
          "indexed": false,
          "internalType": "string",
          "name": "name",
          "type": "string"
        },
        {
          "indexed": false,
          "internalType": "uint256",
          "name": "role",
          "type": "uint256"
        },
        {
          "indexed": false,
          "internalType": "address",
          "name": "user",
          "type": "address"
        },
        {
          "indexed": false,
          "internalType": "bool",
          "name": "created",
          "type": "bool"
        }
      ],
      "name": "UserCreated",
      "type": "event"
    },
    {
      "inputs": [],
      "name": "ServiceCount",
      "outputs": [
        {
          "internalType": "uint256",
          "name": "",
          "type": "uint256"
        }
      ],
      "stateMutability": "view",
      "type": "function",
      "constant": true
    },
    {
      "inputs": [],
      "name": "TotalAmt",
      "outputs": [
        {
          "internalType": "uint256",
          "name": "",
          "type": "uint256"
        }
      ],
      "stateMutability": "view",
      "type": "function",
      "constant": true
    },
    {
      "inputs": [],
      "name": "message",
      "outputs": [
        {
          "internalType": "string",
          "name": "",
          "type": "string"
        }
      ],
      "stateMutability": "view",
      "type": "function",
      "constant": true
    },
    {
      "inputs": [],
      "name": "orderCount",
      "outputs": [
        {
          "internalType": "uint256",
          "name": "",
          "type": "uint256"
        }
      ],
      "stateMutability": "view",
      "type": "function",
      "constant": true
    },
    {
      "inputs": [
        {
          "internalType": "uint256",
          "name": "",
          "type": "uint256"
        }
      ],
      "name": "services",
      "outputs": [
        {
          "internalType": "uint256",
          "name": "pid",
          "type": "uint256"
        },
        {
          "internalType": "string",
          "name": "name",
          "type": "string"
        },
        {
          "internalType": "uint256",
          "name": "price",
          "type": "uint256"
        },
        {
          "internalType": "address payable",
          "name": "staff",
          "type": "address"
        },
        {
          "internalType": "string",
          "name": "info",
          "type": "string"
        },
        {
          "internalType": "uint256",
          "name": "quantity",
          "type": "uint256"
        }
      ],
      "stateMutability": "view",
      "type": "function",
      "constant": true
    },
    {
      "inputs": [],
      "name": "userCount",
      "outputs": [
        {
          "internalType": "uint256",
          "name": "",
          "type": "uint256"
        }
      ],
      "stateMutability": "view",
      "type": "function",
      "constant": true
    },
    {
      "inputs": [
        {
          "internalType": "address",
          "name": "",
          "type": "address"
        }
      ],
      "name": "users",
      "outputs": [
        {
          "internalType": "uint256",
          "name": "uid",
          "type": "uint256"
        },
        {
          "internalType": "string",
          "name": "name",
          "type": "string"
        },
        {
          "internalType": "uint256",
          "name": "role",
          "type": "uint256"
        },
        {
          "internalType": "address",
          "name": "user",
          "type": "address"
        },
        {
          "internalType": "bool",
          "name": "created",
          "type": "bool"
        }
      ],
      "stateMutability": "view",
      "type": "function",
      "constant": true
    },
    {
      "stateMutability": "payable",
      "type": "receive",
      "payable": true
    },
    {
      "inputs": [
        {
          "internalType": "uint256",
          "name": "newAmt",
          "type": "uint256"
        }
      ],
      "name": "setAmt",
      "outputs": [
        {
          "internalType": "bool",
          "name": "",
          "type": "bool"
        }
      ],
      "stateMutability": "nonpayable",
      "type": "function"
    },
    {
      "inputs": [],
      "name": "getAmt",
      "outputs": [
        {
          "internalType": "uint256",
          "name": "",
          "type": "uint256"
        }
      ],
      "stateMutability": "view",
      "type": "function",
      "constant": true
    },
    {
      "inputs": [
        {
          "internalType": "string",
          "name": "newMessage",
          "type": "string"
        }
      ],
      "name": "update",
      "outputs": [],
      "stateMutability": "nonpayable",
      "type": "function"
    },
    {
      "inputs": [
        {
          "internalType": "string",
          "name": "_name",
          "type": "string"
        },
        {
          "internalType": "uint256",
          "name": "_role",
          "type": "uint256"
        }
      ],
      "name": "createUser",
      "outputs": [],
      "stateMutability": "nonpayable",
      "type": "function"
    },
    {
      "inputs": [
        {
          "internalType": "string",
          "name": "_name",
          "type": "string"
        },
        {
          "internalType": "uint256",
          "name": "_price",
          "type": "uint256"
        },
        {
          "internalType": "string",
          "name": "_info",
          "type": "string"
        },
        {
          "internalType": "uint256",
          "name": "_quantity",
          "type": "uint256"
        }
      ],
      "name": "createService",
      "outputs": [],
      "stateMutability": "nonpayable",
      "type": "function"
    },
    {
      "inputs": [
        {
          "internalType": "uint256",
          "name": "_id",
          "type": "uint256"
        },
        {
          "internalType": "uint256",
          "name": "_quantity",
          "type": "uint256"
        }
      ],
      "name": "purchaseService",
      "outputs": [],
      "stateMutability": "payable",
      "type": "function",
      "payable": true
    }
  ],
  "bytecode": "0x608060405260006001556000600355600060055533600760006101000a81548173ffffffffffffffffffffffffffffffffffffffff021916908373ffffffffffffffffffffffffffffffffffffffff1602179055503480156200006157600080fd5b50604051620021d8380380620021d88339818101604052810190620000879190620001dd565b80600890805190602001906200009f929190620000af565b50600060098190555050620003b2565b828054620000bd90620002c3565b90600052602060002090601f016020900481019282620000e157600085556200012d565b82601f10620000fc57805160ff19168380011785556200012d565b828001600101855582156200012d579182015b828111156200012c5782518255916020019190600101906200010f565b5b5090506200013c919062000140565b5090565b5b808211156200015b57600081600090555060010162000141565b5090565b600062000176620001708462000257565b6200022e565b90508281526020810184848401111562000195576200019462000392565b5b620001a28482856200028d565b509392505050565b600082601f830112620001c257620001c16200038d565b5b8151620001d48482602086016200015f565b91505092915050565b600060208284031215620001f657620001f56200039c565b5b600082015167ffffffffffffffff81111562000217576200021662000397565b5b6200022584828501620001aa565b91505092915050565b60006200023a6200024d565b9050620002488282620002f9565b919050565b6000604051905090565b600067ffffffffffffffff8211156200027557620002746200035e565b5b6200028082620003a1565b9050602081019050919050565b60005b83811015620002ad57808201518184015260208101905062000290565b83811115620002bd576000848401525b50505050565b60006002820490506001821680620002dc57607f821691505b60208210811415620002f357620002f26200032f565b5b50919050565b6200030482620003a1565b810181811067ffffffffffffffff821117156200032657620003256200035e565b5b80604052505050565b7f4e487b7100000000000000000000000000000000000000000000000000000000600052602260045260246000fd5b7f4e487b7100000000000000000000000000000000000000000000000000000000600052604160045260246000fd5b600080fd5b600080fd5b600080fd5b600080fd5b6000601f19601f8301169050919050565b611e1680620003c26000396000f3fe6080604052600436106100c65760003560e01c80634d4129bf1161007f578063a87430ba11610059578063a87430ba14610243578063c22c4f4314610284578063d8fbd5a0146102c6578063e21f37ce14610303576100d0565b80634d4129bf146101d35780637104a9a7146101fe578063a0113bf91461021a576100d0565b806307973ccf146100d5578063121ef2431461010057806315c191a9146101295780632453ffa8146101545780633d7403a31461017f5780633f205474146101a8576100d0565b366100d057600080fd5b600080fd5b3480156100e157600080fd5b506100ea61032e565b6040516100f791906117e8565b60405180910390f35b34801561010c57600080fd5b506101276004803603810190610122919061139f565b610334565b005b34801561013557600080fd5b5061013e610544565b60405161014b91906117e8565b60405180910390f35b34801561016057600080fd5b5061016961054e565b60405161017691906117e8565b60405180910390f35b34801561018b57600080fd5b506101a660048036038101906101a19190611356565b610554565b005b3480156101b457600080fd5b506101bd6106c7565b6040516101ca91906117e8565b60405180910390f35b3480156101df57600080fd5b506101e86106cd565b6040516101f591906117e8565b60405180910390f35b610218600480360381019061021391906114c7565b6106d3565b005b34801561022657600080fd5b50610241600480360381019061023c91906113fb565b610c85565b005b34801561024f57600080fd5b5061026a60048036038101906102659190611329565b610eb5565b60405161027b9594939291906118d8565b60405180910390f35b34801561029057600080fd5b506102ab60048036038101906102a6919061149a565b610fa0565b6040516102bd96959493929190611869565b60405180910390f35b3480156102d257600080fd5b506102ed60048036038101906102e8919061149a565b61110c565b6040516102fa9190611694565b60405180910390f35b34801561030f57600080fd5b5061031861115e565b60405161032591906116af565b60405180910390f35b60055481565b60001515600660003373ffffffffffffffffffffffffffffffffffffffff1673ffffffffffffffffffffffffffffffffffffffff16815260200190815260200160002060030160149054906101000a900460ff161515146103ca576040517f08c379a00000000000000000000000000000000000000000000000000000000081526004016103c190611788565b60405180910390fd5b600560008154809291906103dd90611b6f565b91905055506040518060a0016040528060055481526020018381526020018281526020013373ffffffffffffffffffffffffffffffffffffffff16815260200160011515815250600660003373ffffffffffffffffffffffffffffffffffffffff1673ffffffffffffffffffffffffffffffffffffffff1681526020019081526020016000206000820151816000015560208201518160010190805190602001906104899291906111ec565b506040820151816002015560608201518160030160006101000a81548173ffffffffffffffffffffffffffffffffffffffff021916908373ffffffffffffffffffffffffffffffffffffffff16021790555060808201518160030160146101000a81548160ff0219169083151502179055509050507ffdc3d933eb01b18adc96e246dc8796b5299f329e4e8665045716fb60bc497ad760055483833360016040516105389594939291906118d8565b60405180910390a15050565b6000600954905090565b60015481565b600760009054906101000a900473ffffffffffffffffffffffffffffffffffffffff1673ffffffffffffffffffffffffffffffffffffffff163373ffffffffffffffffffffffffffffffffffffffff16146105e4576040517f08c379a00000000000000000000000000000000000000000000000000000000081526004016105db90611708565b60405180910390fd5b6000600880546105f390611b0c565b80601f016020809104026020016040519081016040528092919081815260200182805461061f90611b0c565b801561066c5780601f106106415761010080835404028352916020019161066c565b820191906000526020600020905b81548152906001019060200180831161064f57829003601f168201915b5050505050905081600890805190602001906106899291906111ec565b507ff91d506d7335e83e4869a58cd98e0557cdcef6f507ba1e52725521305626d05b81836040516106bb9291906116d1565b60405180910390a15050565b60035481565b60095481565b6000600460008481526020019081526020016000206040518060c00160405290816000820154815260200160018201805461070d90611b0c565b80601f016020809104026020016040519081016040528092919081815260200182805461073990611b0c565b80156107865780601f1061075b57610100808354040283529160200191610786565b820191906000526020600020905b81548152906001019060200180831161076957829003601f168201915b50505050508152602001600282015481526020016003820160009054906101000a900473ffffffffffffffffffffffffffffffffffffffff1673ffffffffffffffffffffffffffffffffffffffff1673ffffffffffffffffffffffffffffffffffffffff1681526020016004820180546107ff90611b0c565b80601f016020809104026020016040519081016040528092919081815260200182805461082b90611b0c565b80156108785780601f1061084d57610100808354040283529160200191610878565b820191906000526020600020905b81548152906001019060200180831161085b57829003601f168201915b50505050508152602001600582015481525050905060008160600151905060011515600660003373ffffffffffffffffffffffffffffffffffffffff1673ffffffffffffffffffffffffffffffffffffffff16815260200190815260200160002060030160149054906101000a900460ff1615151461092c576040517f08c379a000000000000000000000000000000000000000000000000000000000815260040161092390611768565b60405180910390fd5b600082600001511180156109465750600354826000015111155b610985576040517f08c379a000000000000000000000000000000000000000000000000000000000815260040161097c906117c8565b60405180910390fd5b81604001513410156109cc576040517f08c379a00000000000000000000000000000000000000000000000000000000081526004016109c390611728565b60405180910390fd5b3373ffffffffffffffffffffffffffffffffffffffff168173ffffffffffffffffffffffffffffffffffffffff161415610a3b576040517f08c379a0000000000000000000000000000000000000000000000000000000008152600401610a32906117a8565b60405180910390fd5b60016000815480929190610a4e90611b6f565b919050555060018260a00151610a649190611a3c565b60046000868152602001908152602001600020600501819055506040518060c0016040528060015481526020018273ffffffffffffffffffffffffffffffffffffffff1681526020013373ffffffffffffffffffffffffffffffffffffffff1681526020016040518060400160405280600781526020017f4f72646572656400000000000000000000000000000000000000000000000000815250815260200183600001518152602001848152506002600060015481526020019081526020016000206000820151816000015560208201518160010160006101000a81548173ffffffffffffffffffffffffffffffffffffffff021916908373ffffffffffffffffffffffffffffffffffffffff16021790555060408201518160020160006101000a81548173ffffffffffffffffffffffffffffffffffffffff021916908373ffffffffffffffffffffffffffffffffffffffff1602179055506060820151816003019080519060200190610bdb9291906111ec565b506080820151816004015560a082015181600501559050503373ffffffffffffffffffffffffffffffffffffffff166108fc349081150290604051600060405180830381858888f19350505050158015610c39573d6000803e3d6000fd5b507f4d717ff548d134eb1e127cd274c3685058ad9a14c9a8f06d524fd5264a5857da6001548233856000015187604051610c77959493929190611803565b60405180910390a150505050565b600760009054906101000a900473ffffffffffffffffffffffffffffffffffffffff1673ffffffffffffffffffffffffffffffffffffffff163373ffffffffffffffffffffffffffffffffffffffff1614610d15576040517f08c379a0000000000000000000000000000000000000000000000000000000008152600401610d0c90611708565b60405180910390fd5b60008311610d58576040517f08c379a0000000000000000000000000000000000000000000000000000000008152600401610d4f90611748565b60405180910390fd5b60036000815480929190610d6b90611b6f565b91905055506040518060c0016040528060035481526020018581526020018481526020013373ffffffffffffffffffffffffffffffffffffffff16815260200183815260200182815250600460006003548152602001908152602001600020600082015181600001556020820151816001019080519060200190610df09291906111ec565b506040820151816002015560608201518160030160006101000a81548173ffffffffffffffffffffffffffffffffffffffff021916908373ffffffffffffffffffffffffffffffffffffffff1602179055506080820151816004019080519060200190610e5e9291906111ec565b5060a082015181600501559050507fafbc3f5e12fb3f1b211843b7edaeb13de29acb4fbc41c93cbc55f5f1fb177bb56003548585338686604051610ea796959493929190611932565b60405180910390a150505050565b6006602052806000526040600020600091509050806000015490806001018054610ede90611b0c565b80601f0160208091040260200160405190810160405280929190818152602001828054610f0a90611b0c565b8015610f575780601f10610f2c57610100808354040283529160200191610f57565b820191906000526020600020905b815481529060010190602001808311610f3a57829003601f168201915b5050505050908060020154908060030160009054906101000a900473ffffffffffffffffffffffffffffffffffffffff16908060030160149054906101000a900460ff16905085565b6004602052806000526040600020600091509050806000015490806001018054610fc990611b0c565b80601f0160208091040260200160405190810160405280929190818152602001828054610ff590611b0c565b80156110425780601f1061101757610100808354040283529160200191611042565b820191906000526020600020905b81548152906001019060200180831161102557829003601f168201915b5050505050908060020154908060030160009054906101000a900473ffffffffffffffffffffffffffffffffffffffff169080600401805461108390611b0c565b80601f01602080910402602001604051908101604052809291908181526020018280546110af90611b0c565b80156110fc5780601f106110d1576101008083540402835291602001916110fc565b820191906000526020600020905b8154815290600101906020018083116110df57829003601f168201915b5050505050908060050154905086565b6000806009549050826009819055507faff866357c4ce2994fc728fe64ddd1ced42a9e176f9fd4d0c66029d065311ebb818460405161114c9291906119a1565b60405180910390a16001915050919050565b6008805461116b90611b0c565b80601f016020809104026020016040519081016040528092919081815260200182805461119790611b0c565b80156111e45780601f106111b9576101008083540402835291602001916111e4565b820191906000526020600020905b8154815290600101906020018083116111c757829003601f168201915b505050505081565b8280546111f890611b0c565b90600052602060002090601f01602090048101928261121a5760008555611261565b82601f1061123357805160ff1916838001178555611261565b82800160010185558215611261579182015b82811115611260578251825591602001919060010190611245565b5b50905061126e9190611272565b5090565b5b8082111561128b576000816000905550600101611273565b5090565b60006112a261129d846119ef565b6119ca565b9050828152602081018484840111156112be576112bd611c4a565b5b6112c9848285611aca565b509392505050565b6000813590506112e081611db2565b92915050565b600082601f8301126112fb576112fa611c45565b5b813561130b84826020860161128f565b91505092915050565b60008135905061132381611dc9565b92915050565b60006020828403121561133f5761133e611c54565b5b600061134d848285016112d1565b91505092915050565b60006020828403121561136c5761136b611c54565b5b600082013567ffffffffffffffff81111561138a57611389611c4f565b5b611396848285016112e6565b91505092915050565b600080604083850312156113b6576113b5611c54565b5b600083013567ffffffffffffffff8111156113d4576113d3611c4f565b5b6113e0858286016112e6565b92505060206113f185828601611314565b9150509250929050565b6000806000806080858703121561141557611414611c54565b5b600085013567ffffffffffffffff81111561143357611432611c4f565b5b61143f878288016112e6565b945050602061145087828801611314565b935050604085013567ffffffffffffffff81111561147157611470611c4f565b5b61147d878288016112e6565b925050606061148e87828801611314565b91505092959194509250565b6000602082840312156114b0576114af611c54565b5b60006114be84828501611314565b91505092915050565b600080604083850312156114de576114dd611c54565b5b60006114ec85828601611314565b92505060206114fd85828601611314565b9150509250929050565b61151081611a82565b82525050565b61151f81611a70565b82525050565b61152e81611a94565b82525050565b600061153f82611a20565b6115498185611a2b565b9350611559818560208601611ad9565b61156281611c59565b840191505092915050565b600061157a601f83611a2b565b915061158582611c6a565b602082019050919050565b600061159d601a83611a2b565b91506115a882611c93565b602082019050919050565b60006115c0600d83611a2b565b91506115cb82611cbc565b602082019050919050565b60006115e3600783611a2b565b91506115ee82611ce5565b602082019050919050565b6000611606601183611a2b565b915061161182611d0e565b602082019050919050565b6000611629601483611a2b565b915061163482611d37565b602082019050919050565b600061164c601083611a2b565b915061165782611d60565b602082019050919050565b600061166f601283611a2b565b915061167a82611d89565b602082019050919050565b61168e81611ac0565b82525050565b60006020820190506116a96000830184611525565b92915050565b600060208201905081810360008301526116c98184611534565b905092915050565b600060408201905081810360008301526116eb8185611534565b905081810360208301526116ff8184611534565b90509392505050565b600060208201905081810360008301526117218161156d565b9050919050565b6000602082019050818103600083015261174181611590565b9050919050565b60006020820190508181036000830152611761816115b3565b9050919050565b60006020820190508181036000830152611781816115f9565b9050919050565b600060208201905081810360008301526117a18161161c565b9050919050565b600060208201905081810360008301526117c18161163f565b9050919050565b600060208201905081810360008301526117e181611662565b9050919050565b60006020820190506117fd6000830184611685565b92915050565b600060c0820190506118186000830188611685565b6118256020830187611507565b6118326040830186611507565b8181036060830152611843816115d6565b90506118526080830185611685565b61185f60a0830184611685565b9695505050505050565b600060c08201905061187e6000830189611685565b81810360208301526118908188611534565b905061189f6040830187611685565b6118ac6060830186611507565b81810360808301526118be8185611534565b90506118cd60a0830184611685565b979650505050505050565b600060a0820190506118ed6000830188611685565b81810360208301526118ff8187611534565b905061190e6040830186611685565b61191b6060830185611516565b6119286080830184611525565b9695505050505050565b600060c0820190506119476000830189611685565b81810360208301526119598188611534565b90506119686040830187611685565b6119756060830186611516565b81810360808301526119878185611534565b905061199660a0830184611685565b979650505050505050565b60006040820190506119b66000830185611685565b6119c36020830184611685565b9392505050565b60006119d46119e5565b90506119e08282611b3e565b919050565b6000604051905090565b600067ffffffffffffffff821115611a0a57611a09611c16565b5b611a1382611c59565b9050602081019050919050565b600081519050919050565b600082825260208201905092915050565b6000611a4782611ac0565b9150611a5283611ac0565b925082821015611a6557611a64611bb8565b5b828203905092915050565b6000611a7b82611aa0565b9050919050565b6000611a8d82611aa0565b9050919050565b60008115159050919050565b600073ffffffffffffffffffffffffffffffffffffffff82169050919050565b6000819050919050565b82818337600083830152505050565b60005b83811015611af7578082015181840152602081019050611adc565b83811115611b06576000848401525b50505050565b60006002820490506001821680611b2457607f821691505b60208210811415611b3857611b37611be7565b5b50919050565b611b4782611c59565b810181811067ffffffffffffffff82111715611b6657611b65611c16565b5b80604052505050565b6000611b7a82611ac0565b91507fffffffffffffffffffffffffffffffffffffffffffffffffffffffffffffffff821415611bad57611bac611bb8565b5b600182019050919050565b7f4e487b7100000000000000000000000000000000000000000000000000000000600052601160045260246000fd5b7f4e487b7100000000000000000000000000000000000000000000000000000000600052602260045260246000fd5b7f4e487b7100000000000000000000000000000000000000000000000000000000600052604160045260246000fd5b600080fd5b600080fd5b600080fd5b600080fd5b6000601f19601f8301169050919050565b7f4f6e6c79206f776e65722063616e207265676973746572206120757365722e00600082015250565b7f4e6f7420656e6f75676820657468657220696e2057616c6c6574000000000000600082015250565b7f496e76616c696420507269636500000000000000000000000000000000000000600082015250565b7f4f72646572656400000000000000000000000000000000000000000000000000600082015250565b7f556e726567697374657265642075736572000000000000000000000000000000600082015250565b7f5573657220616c72656164792063726561746564000000000000000000000000600082015250565b7f496e76616c696420507572636861736500000000000000000000000000000000600082015250565b7f496e76616c69642050726f647563742049440000000000000000000000000000600082015250565b611dbb81611a70565b8114611dc657600080fd5b50565b611dd281611ac0565b8114611ddd57600080fd5b5056fea2646970667358221220a187bd0c22db2812f667ebdf40a97de5d65fef5fa84dce645390e894d03c1fac64736f6c63430008050033",
  "immutableReferences": {},
  "source": "/// SPDX-License-Identifier: MIT\r\n/// Commented to the specs described by NatSpec Solidity documentation\r\n\r\npragma solidity 0.8.5;\r\n\r\n/** Defines an interface named `MyInterface`.\r\n*/\r\ninterface MyInterface {\r\n    function getAmt() external view returns (uint256);\r\n}\r\n\r\n/// Defines a contract named `BMS`.\r\ncontract BMS{\r\n\r\n  /// Hint: We want to protect our users balance from other contracts\r\n  mapping (address => uint256) private balances;\r\n   \r\n\t /** Declares a state variable `message` of type `string`.\r\n   State variables are variables whose values are permanently stored in contract storage. The keyword `public` makes variables accessible from outside a contract and creates a function that other contracts or clients can call to access the value.\r\n   */\r\n  uint public orderCount = 0;\r\n  mapping(uint => Order) private orders;\r\n\r\n  uint public ServiceCount = 0;\r\n  mapping(uint => Service) public services;\r\n\r\n  uint public userCount = 0;\r\n  mapping(address => User) public users;\r\n\r\n    /// <owner>\r\n  address private owner = msg.sender;\r\n\r\n  string public message;\r\n    \r\n  uint256 public TotalAmt;\r\n    \r\n  bool private lock;\r\n\r\n  struct Order {\r\n        uint oid;\r\n        address payable seller;\r\n        address payable buyer;\r\n        string status;\r\n        uint pid;\r\n        uint quantitiy;\r\n  }\r\n\r\n  struct Service {\r\n        uint pid;\r\n        string name;\r\n        uint price;\r\n        address payable staff;\r\n        string info;\r\n        uint quantity;\r\n  }\r\n\r\n  struct User {\r\n        uint uid;\r\n        string name;\r\n        uint role;\r\n        address user;\r\n        bool created;\r\n  }\r\n\r\n\t/** Emitted when update function is called\r\n   Smart contract events are a way for your contract to communicate that something happened on the blockchain to your app front-end, which can be 'listening' for certain events and take action when they happen.\r\n   */\r\n\r\n  event ServiceCreated(\r\n        uint pid,\r\n        string name,\r\n        uint price,\r\n        address staff,\r\n        string info,\r\n        uint quantity\r\n  );\r\n\r\n  event  UserCreated(\r\n        uint uid,\r\n        string name,\r\n        uint role,\r\n        address user,\r\n        bool created\r\n  );\r\n\r\n  event ServicePurchased(\r\n        uint oid,\r\n        address payable seller,\r\n        address payable buyer,\r\n        string status,\r\n        uint pid,\r\n        uint quantity\r\n  );\r\n\r\n  event UpdatedMessages(\r\n\t\t\t\tstring oldStr,\r\n\t\t\t\tstring newStr\r\n\t);\r\n\r\n  event UpdatedAmt(\r\n\t\t\t\tuint256 oldAmt, \r\n\t\t\t\tuint256 newAmt\r\n\t);\r\n\r\n  /** Emitted when update function is called\r\n\tAdd 2 arguments for this event, an accountAddress and an amount\r\n\t*/\r\n  //event LogDepositMade(address accountAddress, uint256 amount);\r\n\r\n\t// Similar to many class-based object-oriented languages, a constructor is a special function that is only executed upon contract creation.\r\n  constructor(string memory initMessage) {\r\n      \r\n\t/// Accepts a string argument `initMessage` and sets the value into the contract's `message` storage variable).\r\n      message = initMessage;\r\n      TotalAmt = 0;\r\n  }\r\n\t\r\n\t/**\r\n  Using modifiers only for check for only Owner Functions\r\n  */\r\n\tmodifier onlyOwner() {\r\n        require(msg.sender == owner, \"Only owner can register a user.\");\r\n        _;\r\n  }\r\n\r\n\t/** \r\n\tFallback function - Called if other functions don't match call or\r\n  sent ether without data\r\n  Typically, called when invalid data is sent\r\n  Added so ether sent to this contract is reverted if the contract fails\r\n  otherwise, the sender's money is transferred to contract\r\n\t*/\r\n  receive() external payable {\r\n\t\trevert();\r\n  }\r\n\r\n  function setAmt(uint256 newAmt) public returns(bool) {\r\n        uint256 oldAmt = TotalAmt;\r\n        TotalAmt = newAmt;\r\n        emit UpdatedAmt(oldAmt, newAmt);\r\n        return true;\r\n  }\r\n\r\n  function getAmt() public view returns (uint256) {\r\n        //uint256 surchargefees = 10;\r\n        //uint256 finalamt = TotalAmt + surchargefees;\r\n        return TotalAmt;\r\n  }\r\n   \r\n\t /// A public function that accepts a string argument and updates the `message` storage variable.\r\n  function update(string memory newMessage) public onlyOwner {\r\n      string memory oldMsg = message;\r\n      message = newMessage;\r\n      emit UpdatedMessages(oldMsg, newMessage);\r\n  }\r\n\r\n  function createUser(string memory _name, uint _role) public {\r\n        ///No repeated address\r\n        require(users[msg.sender].created == false, 'User already created');\r\n        ///Increase userCount\r\n        userCount++;\r\n        ///Add user\r\n        users[msg.sender] = User(userCount, _name, _role, msg.sender, true);\r\n        ///Trigger an event\r\n        emit UserCreated(userCount, _name, _role, msg.sender, true);\r\n  }\r\n\r\n  function createService(string memory _name, uint _price, string memory _info, uint _quantity) public onlyOwner{\r\n        /// Require a valid price\r\n        require(_price > 0, 'Invalid Price');\r\n        /// Increment product count\r\n        ServiceCount ++;\r\n        /// Create the product\r\n        services[ServiceCount] = Service(ServiceCount, _name, _price, payable(msg.sender), _info, _quantity);\r\n        /// Trigger an event\r\n        emit ServiceCreated(ServiceCount, _name, _price, msg.sender, _info, _quantity);\r\n  }\r\n\r\n\tfunction purchaseService(uint _id, uint _quantity) public payable {\r\n        /// Fetch the product\r\n        Service memory _service = services[_id];\r\n        /// Fetch the owner\r\n        address payable _staff = _service.staff;\r\n        /// Validate the buyer\r\n        require(users[msg.sender].created == true, 'Unregistered user');\r\n        /// Make sure the product has a valid id\r\n        require(_service.pid > 0 && _service.pid <= ServiceCount, 'Invalid Product ID');\r\n        /// Require that there is enough Ether in the transaction\r\n        require(msg.value >= _service.price, 'Not enough ether in Wallet');\r\n        /// Require that the buyer is not the seller\r\n        require(_staff != msg.sender,'Invalid Purchase');\r\n        /// Incrmement orderCount\r\n        orderCount++;\r\n        /// Reduce the quantity of the product\r\n        services[_id].quantity =  _service.quantity - 1;\r\n        /// Transfer ownership to the buyer\r\n        orders[orderCount] = Order(orderCount, _staff, payable(msg.sender),  'Ordered', _service.pid, _quantity);\r\n        /// Pay the contract by sending them Ether\r\n        payable(msg.sender).transfer(msg.value);\r\n        /// Trigger an event\r\n        emit ServicePurchased(orderCount, _staff, payable(msg.sender), 'Ordered', _service.pid, _quantity);\r\n  }\r\n\r\n/**\r\n     /// Conforms to checks-effects-interactions pattern to protect against #SWC-107 - Reentrancy\r\n    function transfer(address addr, uint amount) external {\r\n    require(!lock);\r\n    lock = true;\r\n    if (balances[msg.sender] >= amount) {\r\n        balances[addr] += amount;\r\n        balances[msg.sender] -= amount;\r\n    }\r\n    lock = false;\r\n    }\r\n*/\r\n}",
  "sourcePath": "C:\\Users\\Samuel\\Desktop\\Blockchain\\Blockchain Developer Bootcamp 2021\\blockchain-developer-bootcamp-final-project\\contracts\\BMS.sol",
  "compiler": {
    "name": "solc",
    "version": "0.8.5+commit.a4f2e591.Emscripten.clang"
  },
  "schemaVersion": "3.4.3",
  "updatedAt": "2021-11-28T20:04:36.863Z",
  "networkType": "ethereum",
  "devdoc": {
    "kind": "dev",
    "methods": {},
    "version": 1
  },
  "userdoc": {
    "events": {
      "ServiceCreated(uint256,string,uint256,address,string,uint256)": {
        "notice": "Emitted when update function is called Smart contract events are a way for your contract to communicate that something happened on the blockchain to your app front-end, which can be 'listening' for certain events and take action when they happen."
      }
    },
    "kind": "user",
    "methods": {
      "constructor": {
        "notice": "Emitted when update function is called Add 2 arguments for this event, an accountAddress and an amount"
      },
      "orderCount()": {
        "notice": "Declares a state variable `message` of type `string`. State variables are variables whose values are permanently stored in contract storage. The keyword `public` makes variables accessible from outside a contract and creates a function that other contracts or clients can call to access the value."
      },
      "update(string)": {
        "notice": "A public function that accepts a string argument and updates the `message` storage variable."
      }
    },
    "notice": "Defines a contract named `BMS`.",
    "version": 1
  }
}