{
  "contractName": "BMS",
  "abi": [
    {
      "inputs": [
        {
          "internalType": "string",
          "name": "initMessage",
          "type": "string"
        }
      ],
      "stateMutability": "nonpayable",
      "type": "constructor"
    },
    {
      "anonymous": false,
      "inputs": [
        {
          "indexed": false,
          "internalType": "uint256",
          "name": "pid",
          "type": "uint256"
        },
        {
          "indexed": false,
          "internalType": "string",
          "name": "name",
          "type": "string"
        },
        {
          "indexed": false,
          "internalType": "uint256",
          "name": "price",
          "type": "uint256"
        },
        {
          "indexed": false,
          "internalType": "address",
          "name": "staff",
          "type": "address"
        },
        {
          "indexed": false,
          "internalType": "string",
          "name": "info",
          "type": "string"
        },
        {
          "indexed": false,
          "internalType": "uint256",
          "name": "quantity",
          "type": "uint256"
        }
      ],
      "name": "ServiceCreated",
      "type": "event"
    },
    {
      "anonymous": false,
      "inputs": [
        {
          "indexed": false,
          "internalType": "uint256",
          "name": "oid",
          "type": "uint256"
        },
        {
          "indexed": false,
          "internalType": "address payable",
          "name": "seller",
          "type": "address"
        },
        {
          "indexed": false,
          "internalType": "address payable",
          "name": "buyer",
          "type": "address"
        },
        {
          "indexed": false,
          "internalType": "string",
          "name": "status",
          "type": "string"
        },
        {
          "indexed": false,
          "internalType": "uint256",
          "name": "pid",
          "type": "uint256"
        },
        {
          "indexed": false,
          "internalType": "uint256",
          "name": "quantity",
          "type": "uint256"
        }
      ],
      "name": "ServicePurchased",
      "type": "event"
    },
    {
      "anonymous": false,
      "inputs": [
        {
          "indexed": false,
          "internalType": "uint256",
          "name": "oldAmt",
          "type": "uint256"
        },
        {
          "indexed": false,
          "internalType": "uint256",
          "name": "newAmt",
          "type": "uint256"
        }
      ],
      "name": "UpdatedAmt",
      "type": "event"
    },
    {
      "anonymous": false,
      "inputs": [
        {
          "indexed": false,
          "internalType": "string",
          "name": "oldStr",
          "type": "string"
        },
        {
          "indexed": false,
          "internalType": "string",
          "name": "newStr",
          "type": "string"
        }
      ],
      "name": "UpdatedMessages",
      "type": "event"
    },
    {
      "anonymous": false,
      "inputs": [
        {
          "indexed": false,
          "internalType": "uint256",
          "name": "uid",
          "type": "uint256"
        },
        {
          "indexed": false,
          "internalType": "string",
          "name": "name",
          "type": "string"
        },
        {
          "indexed": false,
          "internalType": "uint256",
          "name": "role",
          "type": "uint256"
        },
        {
          "indexed": false,
          "internalType": "address",
          "name": "user",
          "type": "address"
        },
        {
          "indexed": false,
          "internalType": "bool",
          "name": "created",
          "type": "bool"
        }
      ],
      "name": "UserCreated",
      "type": "event"
    },
    {
      "inputs": [],
      "name": "ServiceCount",
      "outputs": [
        {
          "internalType": "uint256",
          "name": "",
          "type": "uint256"
        }
      ],
      "stateMutability": "view",
      "type": "function",
      "constant": true
    },
    {
      "inputs": [],
      "name": "TotalAmt",
      "outputs": [
        {
          "internalType": "uint256",
          "name": "",
          "type": "uint256"
        }
      ],
      "stateMutability": "view",
      "type": "function",
      "constant": true
    },
    {
      "inputs": [],
      "name": "message",
      "outputs": [
        {
          "internalType": "string",
          "name": "",
          "type": "string"
        }
      ],
      "stateMutability": "view",
      "type": "function",
      "constant": true
    },
    {
      "inputs": [],
      "name": "orderCount",
      "outputs": [
        {
          "internalType": "uint256",
          "name": "",
          "type": "uint256"
        }
      ],
      "stateMutability": "view",
      "type": "function",
      "constant": true
    },
    {
      "inputs": [
        {
          "internalType": "uint256",
          "name": "",
          "type": "uint256"
        }
      ],
      "name": "services",
      "outputs": [
        {
          "internalType": "uint256",
          "name": "pid",
          "type": "uint256"
        },
        {
          "internalType": "string",
          "name": "name",
          "type": "string"
        },
        {
          "internalType": "uint256",
          "name": "price",
          "type": "uint256"
        },
        {
          "internalType": "address payable",
          "name": "staff",
          "type": "address"
        },
        {
          "internalType": "string",
          "name": "info",
          "type": "string"
        },
        {
          "internalType": "uint256",
          "name": "quantity",
          "type": "uint256"
        }
      ],
      "stateMutability": "view",
      "type": "function",
      "constant": true
    },
    {
      "inputs": [],
      "name": "userCount",
      "outputs": [
        {
          "internalType": "uint256",
          "name": "",
          "type": "uint256"
        }
      ],
      "stateMutability": "view",
      "type": "function",
      "constant": true
    },
    {
      "inputs": [
        {
          "internalType": "address",
          "name": "",
          "type": "address"
        }
      ],
      "name": "users",
      "outputs": [
        {
          "internalType": "uint256",
          "name": "uid",
          "type": "uint256"
        },
        {
          "internalType": "string",
          "name": "name",
          "type": "string"
        },
        {
          "internalType": "uint256",
          "name": "role",
          "type": "uint256"
        },
        {
          "internalType": "address",
          "name": "user",
          "type": "address"
        },
        {
          "internalType": "bool",
          "name": "created",
          "type": "bool"
        }
      ],
      "stateMutability": "view",
      "type": "function",
      "constant": true
    },
    {
      "stateMutability": "payable",
      "type": "receive",
      "payable": true
    },
    {
      "inputs": [
        {
          "internalType": "uint256",
          "name": "newAmt",
          "type": "uint256"
        }
      ],
      "name": "setAmt",
      "outputs": [
        {
          "internalType": "bool",
          "name": "",
          "type": "bool"
        }
      ],
      "stateMutability": "nonpayable",
      "type": "function"
    },
    {
      "inputs": [],
      "name": "getAmt",
      "outputs": [
        {
          "internalType": "uint256",
          "name": "",
          "type": "uint256"
        }
      ],
      "stateMutability": "view",
      "type": "function",
      "constant": true
    },
    {
      "inputs": [
        {
          "internalType": "string",
          "name": "newMessage",
          "type": "string"
        }
      ],
      "name": "update",
      "outputs": [],
      "stateMutability": "nonpayable",
      "type": "function"
    },
    {
      "inputs": [
        {
          "internalType": "string",
          "name": "_name",
          "type": "string"
        },
        {
          "internalType": "uint256",
          "name": "_role",
          "type": "uint256"
        }
      ],
      "name": "createUser",
      "outputs": [],
      "stateMutability": "nonpayable",
      "type": "function"
    },
    {
      "inputs": [
        {
          "internalType": "string",
          "name": "_name",
          "type": "string"
        },
        {
          "internalType": "uint256",
          "name": "_price",
          "type": "uint256"
        },
        {
          "internalType": "string",
          "name": "_info",
          "type": "string"
        },
        {
          "internalType": "uint256",
          "name": "_quantity",
          "type": "uint256"
        }
      ],
      "name": "createService",
      "outputs": [],
      "stateMutability": "nonpayable",
      "type": "function"
    }
  ],
  "bytecode": "0x608060405260006001556000600355600060055533600760006101000a81548173ffffffffffffffffffffffffffffffffffffffff021916908373ffffffffffffffffffffffffffffffffffffffff1602179055503480156200006157600080fd5b50604051620019a9380380620019a98339818101604052810190620000879190620001dd565b80600890805190602001906200009f929190620000af565b50600060098190555050620003b2565b828054620000bd90620002c3565b90600052602060002090601f016020900481019282620000e157600085556200012d565b82601f10620000fc57805160ff19168380011785556200012d565b828001600101855582156200012d579182015b828111156200012c5782518255916020019190600101906200010f565b5b5090506200013c919062000140565b5090565b5b808211156200015b57600081600090555060010162000141565b5090565b600062000176620001708462000257565b6200022e565b90508281526020810184848401111562000195576200019462000392565b5b620001a28482856200028d565b509392505050565b600082601f830112620001c257620001c16200038d565b5b8151620001d48482602086016200015f565b91505092915050565b600060208284031215620001f657620001f56200039c565b5b600082015167ffffffffffffffff81111562000217576200021662000397565b5b6200022584828501620001aa565b91505092915050565b60006200023a6200024d565b9050620002488282620002f9565b919050565b6000604051905090565b600067ffffffffffffffff8211156200027557620002746200035e565b5b6200028082620003a1565b9050602081019050919050565b60005b83811015620002ad57808201518184015260208101905062000290565b83811115620002bd576000848401525b50505050565b60006002820490506001821680620002dc57607f821691505b60208210811415620002f357620002f26200032f565b5b50919050565b6200030482620003a1565b810181811067ffffffffffffffff821117156200032657620003256200035e565b5b80604052505050565b7f4e487b7100000000000000000000000000000000000000000000000000000000600052602260045260246000fd5b7f4e487b7100000000000000000000000000000000000000000000000000000000600052604160045260246000fd5b600080fd5b600080fd5b600080fd5b600080fd5b6000601f19601f8301169050919050565b6115e780620003c26000396000f3fe6080604052600436106100ab5760003560e01c80634d4129bf116100645780634d4129bf146101b8578063a0113bf9146101e3578063a87430ba1461020c578063c22c4f431461024d578063d8fbd5a01461028f578063e21f37ce146102cc576100b5565b806307973ccf146100ba578063121ef243146100e557806315c191a91461010e5780632453ffa8146101395780633d7403a3146101645780633f2054741461018d576100b5565b366100b557600080fd5b600080fd5b3480156100c657600080fd5b506100cf6102f7565b6040516100dc9190611120565b60405180910390f35b3480156100f157600080fd5b5061010c60048036038101906101079190610e46565b6102fd565b005b34801561011a57600080fd5b5061012361059d565b6040516101309190611120565b60405180910390f35b34801561014557600080fd5b5061014e6105a7565b60405161015b9190611120565b60405180910390f35b34801561017057600080fd5b5061018b60048036038101906101869190610dfd565b6105ad565b005b34801561019957600080fd5b506101a2610720565b6040516101af9190611120565b60405180910390f35b3480156101c457600080fd5b506101cd610726565b6040516101da9190611120565b60405180910390f35b3480156101ef57600080fd5b5061020a60048036038101906102059190610ea2565b61072c565b005b34801561021857600080fd5b50610233600480360381019061022e9190610dd0565b61095c565b6040516102449594939291906111aa565b60405180910390f35b34801561025957600080fd5b50610274600480360381019061026f9190610f41565b610a47565b6040516102869695949392919061113b565b60405180910390f35b34801561029b57600080fd5b506102b660048036038101906102b19190610f41565b610bb3565b6040516102c3919061104c565b60405180910390f35b3480156102d857600080fd5b506102e1610c05565b6040516102ee9190611067565b60405180910390f35b60055481565b600760009054906101000a900473ffffffffffffffffffffffffffffffffffffffff1673ffffffffffffffffffffffffffffffffffffffff163373ffffffffffffffffffffffffffffffffffffffff161461038d576040517f08c379a0000000000000000000000000000000000000000000000000000000008152600401610384906110c0565b60405180910390fd5b60001515600660003373ffffffffffffffffffffffffffffffffffffffff1673ffffffffffffffffffffffffffffffffffffffff16815260200190815260200160002060030160149054906101000a900460ff16151514610423576040517f08c379a000000000000000000000000000000000000000000000000000000000815260040161041a90611100565b60405180910390fd5b600560008154809291906104369061140d565b91905055506040518060a0016040528060055481526020018381526020018281526020013373ffffffffffffffffffffffffffffffffffffffff16815260200160011515815250600660003373ffffffffffffffffffffffffffffffffffffffff1673ffffffffffffffffffffffffffffffffffffffff1681526020019081526020016000206000820151816000015560208201518160010190805190602001906104e2929190610c93565b506040820151816002015560608201518160030160006101000a81548173ffffffffffffffffffffffffffffffffffffffff021916908373ffffffffffffffffffffffffffffffffffffffff16021790555060808201518160030160146101000a81548160ff0219169083151502179055509050507ffdc3d933eb01b18adc96e246dc8796b5299f329e4e8665045716fb60bc497ad760055483833360016040516105919594939291906111aa565b60405180910390a15050565b6000600954905090565b60015481565b600760009054906101000a900473ffffffffffffffffffffffffffffffffffffffff1673ffffffffffffffffffffffffffffffffffffffff163373ffffffffffffffffffffffffffffffffffffffff161461063d576040517f08c379a0000000000000000000000000000000000000000000000000000000008152600401610634906110c0565b60405180910390fd5b60006008805461064c906113aa565b80601f0160208091040260200160405190810160405280929190818152602001828054610678906113aa565b80156106c55780601f1061069a576101008083540402835291602001916106c5565b820191906000526020600020905b8154815290600101906020018083116106a857829003601f168201915b5050505050905081600890805190602001906106e2929190610c93565b507ff91d506d7335e83e4869a58cd98e0557cdcef6f507ba1e52725521305626d05b8183604051610714929190611089565b60405180910390a15050565b60035481565b60095481565b600760009054906101000a900473ffffffffffffffffffffffffffffffffffffffff1673ffffffffffffffffffffffffffffffffffffffff163373ffffffffffffffffffffffffffffffffffffffff16146107bc576040517f08c379a00000000000000000000000000000000000000000000000000000000081526004016107b3906110c0565b60405180910390fd5b600083116107ff576040517f08c379a00000000000000000000000000000000000000000000000000000000081526004016107f6906110e0565b60405180910390fd5b600360008154809291906108129061140d565b91905055506040518060c0016040528060035481526020018581526020018481526020013373ffffffffffffffffffffffffffffffffffffffff16815260200183815260200182815250600460006003548152602001908152602001600020600082015181600001556020820151816001019080519060200190610897929190610c93565b506040820151816002015560608201518160030160006101000a81548173ffffffffffffffffffffffffffffffffffffffff021916908373ffffffffffffffffffffffffffffffffffffffff1602179055506080820151816004019080519060200190610905929190610c93565b5060a082015181600501559050507fafbc3f5e12fb3f1b211843b7edaeb13de29acb4fbc41c93cbc55f5f1fb177bb5600354858533868660405161094e96959493929190611204565b60405180910390a150505050565b6006602052806000526040600020600091509050806000015490806001018054610985906113aa565b80601f01602080910402602001604051908101604052809291908181526020018280546109b1906113aa565b80156109fe5780601f106109d3576101008083540402835291602001916109fe565b820191906000526020600020905b8154815290600101906020018083116109e157829003601f168201915b5050505050908060020154908060030160009054906101000a900473ffffffffffffffffffffffffffffffffffffffff16908060030160149054906101000a900460ff16905085565b6004602052806000526040600020600091509050806000015490806001018054610a70906113aa565b80601f0160208091040260200160405190810160405280929190818152602001828054610a9c906113aa565b8015610ae95780601f10610abe57610100808354040283529160200191610ae9565b820191906000526020600020905b815481529060010190602001808311610acc57829003601f168201915b5050505050908060020154908060030160009054906101000a900473ffffffffffffffffffffffffffffffffffffffff1690806004018054610b2a906113aa565b80601f0160208091040260200160405190810160405280929190818152602001828054610b56906113aa565b8015610ba35780601f10610b7857610100808354040283529160200191610ba3565b820191906000526020600020905b815481529060010190602001808311610b8657829003601f168201915b5050505050908060050154905086565b6000806009549050826009819055507faff866357c4ce2994fc728fe64ddd1ced42a9e176f9fd4d0c66029d065311ebb8184604051610bf3929190611273565b60405180910390a16001915050919050565b60088054610c12906113aa565b80601f0160208091040260200160405190810160405280929190818152602001828054610c3e906113aa565b8015610c8b5780601f10610c6057610100808354040283529160200191610c8b565b820191906000526020600020905b815481529060010190602001808311610c6e57829003601f168201915b505050505081565b828054610c9f906113aa565b90600052602060002090601f016020900481019282610cc15760008555610d08565b82601f10610cda57805160ff1916838001178555610d08565b82800160010185558215610d08579182015b82811115610d07578251825591602001919060010190610cec565b5b509050610d159190610d19565b5090565b5b80821115610d32576000816000905550600101610d1a565b5090565b6000610d49610d44846112c1565b61129c565b905082815260208101848484011115610d6557610d646114e8565b5b610d70848285611368565b509392505050565b600081359050610d8781611583565b92915050565b600082601f830112610da257610da16114e3565b5b8135610db2848260208601610d36565b91505092915050565b600081359050610dca8161159a565b92915050565b600060208284031215610de657610de56114f2565b5b6000610df484828501610d78565b91505092915050565b600060208284031215610e1357610e126114f2565b5b600082013567ffffffffffffffff811115610e3157610e306114ed565b5b610e3d84828501610d8d565b91505092915050565b60008060408385031215610e5d57610e5c6114f2565b5b600083013567ffffffffffffffff811115610e7b57610e7a6114ed565b5b610e8785828601610d8d565b9250506020610e9885828601610dbb565b9150509250929050565b60008060008060808587031215610ebc57610ebb6114f2565b5b600085013567ffffffffffffffff811115610eda57610ed96114ed565b5b610ee687828801610d8d565b9450506020610ef787828801610dbb565b935050604085013567ffffffffffffffff811115610f1857610f176114ed565b5b610f2487828801610d8d565b9250506060610f3587828801610dbb565b91505092959194509250565b600060208284031215610f5757610f566114f2565b5b6000610f6584828501610dbb565b91505092915050565b610f7781611320565b82525050565b610f868161130e565b82525050565b610f9581611332565b82525050565b6000610fa6826112f2565b610fb081856112fd565b9350610fc0818560208601611377565b610fc9816114f7565b840191505092915050565b6000610fe1601f836112fd565b9150610fec82611508565b602082019050919050565b6000611004600d836112fd565b915061100f82611531565b602082019050919050565b60006110276014836112fd565b91506110328261155a565b602082019050919050565b6110468161135e565b82525050565b60006020820190506110616000830184610f8c565b92915050565b600060208201905081810360008301526110818184610f9b565b905092915050565b600060408201905081810360008301526110a38185610f9b565b905081810360208301526110b78184610f9b565b90509392505050565b600060208201905081810360008301526110d981610fd4565b9050919050565b600060208201905081810360008301526110f981610ff7565b9050919050565b600060208201905081810360008301526111198161101a565b9050919050565b6000602082019050611135600083018461103d565b92915050565b600060c082019050611150600083018961103d565b81810360208301526111628188610f9b565b9050611171604083018761103d565b61117e6060830186610f6e565b81810360808301526111908185610f9b565b905061119f60a083018461103d565b979650505050505050565b600060a0820190506111bf600083018861103d565b81810360208301526111d18187610f9b565b90506111e0604083018661103d565b6111ed6060830185610f7d565b6111fa6080830184610f8c565b9695505050505050565b600060c082019050611219600083018961103d565b818103602083015261122b8188610f9b565b905061123a604083018761103d565b6112476060830186610f7d565b81810360808301526112598185610f9b565b905061126860a083018461103d565b979650505050505050565b6000604082019050611288600083018561103d565b611295602083018461103d565b9392505050565b60006112a66112b7565b90506112b282826113dc565b919050565b6000604051905090565b600067ffffffffffffffff8211156112dc576112db6114b4565b5b6112e5826114f7565b9050602081019050919050565b600081519050919050565b600082825260208201905092915050565b60006113198261133e565b9050919050565b600061132b8261133e565b9050919050565b60008115159050919050565b600073ffffffffffffffffffffffffffffffffffffffff82169050919050565b6000819050919050565b82818337600083830152505050565b60005b8381101561139557808201518184015260208101905061137a565b838111156113a4576000848401525b50505050565b600060028204905060018216806113c257607f821691505b602082108114156113d6576113d5611485565b5b50919050565b6113e5826114f7565b810181811067ffffffffffffffff82111715611404576114036114b4565b5b80604052505050565b60006114188261135e565b91507fffffffffffffffffffffffffffffffffffffffffffffffffffffffffffffffff82141561144b5761144a611456565b5b600182019050919050565b7f4e487b7100000000000000000000000000000000000000000000000000000000600052601160045260246000fd5b7f4e487b7100000000000000000000000000000000000000000000000000000000600052602260045260246000fd5b7f4e487b7100000000000000000000000000000000000000000000000000000000600052604160045260246000fd5b600080fd5b600080fd5b600080fd5b600080fd5b6000601f19601f8301169050919050565b7f4f6e6c79206f776e65722063616e207265676973746572206120757365722e00600082015250565b7f496e76616c696420507269636500000000000000000000000000000000000000600082015250565b7f5573657220616c72656164792063726561746564000000000000000000000000600082015250565b61158c8161130e565b811461159757600080fd5b50565b6115a38161135e565b81146115ae57600080fd5b5056fea2646970667358221220841dc9480c184bdabdfd88707f29e6863f7e0ec3a769fe8ad3cc15cf1d8197da64736f6c63430008050033",
  "immutableReferences": {},
  "source": "/// SPDX-License-Identifier: MIT\r\n\r\n/** \r\nSpecifies the version of Solidity, using semantic versioning.\r\nLock pragmas to specific compiler version - #SWC-103\r\n*/\r\npragma solidity 0.8.5;\r\n\r\n/** Defines an interface named `MyInterface`.\r\n*/\r\ninterface MyInterface {\r\n    function getAmt() external view returns (uint256);\r\n}\r\n\r\n/** Defines a contract named `BMS`.\r\nExplicitly mark visibility in functions and state variables - #SWC-100 & #SWC-108\r\n*/\r\ncontract BMS{\r\n\r\n  /// Hint: We want to protect our users balance from other contracts\r\n  mapping (address => uint256) private balances;\r\n   \r\n\t /** Declares a state variable `message` of type `string`.\r\n   State variables are variables whose values are permanently stored in contract storage. The keyword `public` makes variables accessible from outside a contract and creates a function that other contracts or clients can call to access the value.\r\n   */\r\n  uint public orderCount = 0;\r\n  mapping(uint => Order) private orders;\r\n\r\n  uint public ServiceCount = 0;\r\n  mapping(uint => Service) public services;\r\n\r\n  uint public userCount = 0;\r\n  mapping(address => User) public users;\r\n\r\n    /// <owner>\r\n  address private owner = msg.sender;\r\n\r\n  string public message;\r\n    \r\n  uint256 public TotalAmt;\r\n    \r\n  bool private lock;\r\n\r\n  struct Order {\r\n        uint oid;\r\n        address payable seller;\r\n        address payable buyer;\r\n      //  string timestamp;\r\n        string status;\r\n        uint pid;\r\n        uint quantitiy;\r\n  }\r\n\r\n  struct Service {\r\n        uint pid;\r\n        string name;\r\n        uint price;\r\n        address payable staff;\r\n        string info;\r\n        uint quantity;\r\n  }\r\n\r\n  struct User {\r\n        uint uid;\r\n        string name;\r\n        uint role;\r\n        address user;\r\n        bool created;\r\n  }\r\n\r\n\t/** Emitted when update function is called\r\n   Smart contract events are a way for your contract to communicate that something happened on the blockchain to your app front-end, which can be 'listening' for certain events and take action when they happen.\r\n   */\r\n\r\n  event ServiceCreated(\r\n        uint pid,\r\n        string name,\r\n        uint price,\r\n        address staff,\r\n        string info,\r\n        uint quantity\r\n  );\r\n\r\n  event  UserCreated(\r\n        uint uid,\r\n        string name,\r\n        uint role,\r\n        address user,\r\n        bool created\r\n  );\r\n\r\n  event ServicePurchased(\r\n        uint oid,\r\n        address payable seller,\r\n        address payable buyer,\r\n        string status,\r\n        uint pid,\r\n        uint quantity\r\n  );\r\n\r\n  event UpdatedMessages(\r\n\t\t\t\tstring oldStr,\r\n\t\t\t\tstring newStr\r\n\t);\r\n\r\n  event UpdatedAmt(\r\n\t\t\t\tuint256 oldAmt, \r\n\t\t\t\tuint256 newAmt\r\n\t);\r\n\r\n  /** Emitted when update function is called\r\n\tAdd 2 arguments for this event, an accountAddress and an amount\r\n\t*/\r\n  //event LogDepositMade(address accountAddress, uint256 amount);\r\n\r\n\t// Similar to many class-based object-oriented languages, a constructor is a special function that is only executed upon contract creation.\r\n  constructor(string memory initMessage) {\r\n      \r\n\t/// Accepts a string argument `initMessage` and sets the value into the contract's `message` storage variable).\r\n      message = initMessage;\r\n      TotalAmt = 0;\r\n  }\r\n\t\r\n\t/**\r\n  Using modifiers only for check for only Owner Functions\r\n  */\r\n\tmodifier onlyOwner() {\r\n        require(msg.sender == owner, \"Only owner can register a user.\");\r\n        _;\r\n  }\r\n\r\n\t/** \r\n\tFallback function - Called if other functions don't match call or\r\n  sent ether without data\r\n  Typically, called when invalid data is sent\r\n  Added so ether sent to this contract is reverted if the contract fails\r\n  otherwise, the sender's money is transferred to contract\r\n\t*/\r\n  receive() external payable {\r\n\t\trevert();\r\n  }\r\n\r\n  function setAmt(uint256 newAmt) public returns(bool) {\r\n        uint256 oldAmt = TotalAmt;\r\n        TotalAmt = newAmt;\r\n        emit UpdatedAmt(oldAmt, newAmt);\r\n        return true;\r\n  }\r\n\r\n  function getAmt() public view returns (uint256) {\r\n        //uint256 surchargefees = 10;\r\n        //uint256 finalamt = TotalAmt + surchargefees;\r\n        return TotalAmt;\r\n  }\r\n   \r\n\t /// A public function that accepts a string argument and updates the `message` storage variable.\r\n  function update(string memory newMessage) public onlyOwner {\r\n      string memory oldMsg = message;\r\n      message = newMessage;\r\n      emit UpdatedMessages(oldMsg, newMessage);\r\n  }\r\n\r\n/**\r\nChecks-Effects-Interactions Pattern - #SWC-107\r\n*/\r\n  function createUser(string memory _name, uint _role) public onlyOwner {\r\n        ///No repeated address\r\n        require(users[msg.sender].created == false, 'User already created');\r\n        ///Increase userCount\r\n        userCount++;\r\n        ///Add user\r\n        users[msg.sender] = User(userCount, _name, _role, msg.sender, true);\r\n        ///Trigger an event\r\n        emit UserCreated(userCount, _name, _role, msg.sender, true);\r\n  }\r\n\r\n  function createService(string memory _name, uint _price, string memory _info, uint _quantity) public onlyOwner{\r\n        /// Require a valid price\r\n        require(_price > 0, 'Invalid Price');\r\n        /// Increment product count\r\n        ServiceCount ++;\r\n        /// Create the product\r\n        services[ServiceCount] = Service(ServiceCount, _name, _price, payable(msg.sender), _info, _quantity);\r\n        /// Trigger an event\r\n        emit ServiceCreated(ServiceCount, _name, _price, msg.sender, _info, _quantity);\r\n  }\r\n/**\r\n\t function deposit() public payable{\r\n    // do something here\r\n\t\tbalances[msg.sender] += msg.value;\r\n\t\temit LogDepositMade(msg.sender, balances[msg.sender]);\r\n    }\r\n\r\n     /// Conforms to checks-effects-interactions pattern to protect against #SWC-107 - Reentrancy\r\n    function transfer(address addr, uint amount) external {\r\n    require(!lock);\r\n    lock = true;\r\n    if (balances[msg.sender] >= amount) {\r\n        balances[addr] += amount;\r\n        balances[msg.sender] -= amount;\r\n    }\r\n    lock = false;\r\n    }\r\n*/\r\n}\r\n\r\n",
  "sourcePath": "C:\\Users\\Samuel\\Desktop\\Blockchain\\Blockchain Developer Bootcamp 2021\\BMS\\contracts\\BMS.sol",
  "compiler": {
    "name": "solc",
    "version": "0.8.5+commit.a4f2e591.Emscripten.clang"
  },
  "schemaVersion": "3.4.3",
  "updatedAt": "2021-11-28T09:31:57.400Z",
  "networkType": "ethereum",
  "devdoc": {
    "kind": "dev",
    "methods": {},
    "version": 1
  },
  "userdoc": {
    "events": {
      "ServiceCreated(uint256,string,uint256,address,string,uint256)": {
        "notice": "Emitted when update function is called Smart contract events are a way for your contract to communicate that something happened on the blockchain to your app front-end, which can be 'listening' for certain events and take action when they happen."
      }
    },
    "kind": "user",
    "methods": {
      "constructor": {
        "notice": "Emitted when update function is called Add 2 arguments for this event, an accountAddress and an amount"
      },
      "createUser(string,uint256)": {
        "notice": "Checks-Effects-Interactions Pattern - #SWC-107"
      },
      "orderCount()": {
        "notice": "Declares a state variable `message` of type `string`. State variables are variables whose values are permanently stored in contract storage. The keyword `public` makes variables accessible from outside a contract and creates a function that other contracts or clients can call to access the value."
      },
      "update(string)": {
        "notice": "A public function that accepts a string argument and updates the `message` storage variable."
      }
    },
    "notice": "Defines a contract named `BMS`. Explicitly mark visibility in functions and state variables - #SWC-100 & #SWC-108",
    "version": 1
  }
}