{
  "contractName": "BMS",
  "abi": [
    {
      "inputs": [
        {
          "internalType": "string",
          "name": "initMessage",
          "type": "string"
        },
        {
          "internalType": "address",
          "name": "root",
          "type": "address"
        }
      ],
      "stateMutability": "nonpayable",
      "type": "constructor"
    },
    {
      "anonymous": false,
      "inputs": [
        {
          "indexed": false,
          "internalType": "address",
          "name": "accountAddress",
          "type": "address"
        },
        {
          "indexed": false,
          "internalType": "uint256",
          "name": "amount",
          "type": "uint256"
        }
      ],
      "name": "LogPaymentReceived",
      "type": "event"
    },
    {
      "anonymous": false,
      "inputs": [
        {
          "indexed": true,
          "internalType": "address",
          "name": "previousOwner",
          "type": "address"
        },
        {
          "indexed": true,
          "internalType": "address",
          "name": "newOwner",
          "type": "address"
        }
      ],
      "name": "OwnershipTransferred",
      "type": "event"
    },
    {
      "anonymous": false,
      "inputs": [
        {
          "indexed": true,
          "internalType": "bytes32",
          "name": "role",
          "type": "bytes32"
        },
        {
          "indexed": true,
          "internalType": "bytes32",
          "name": "previousAdminRole",
          "type": "bytes32"
        },
        {
          "indexed": true,
          "internalType": "bytes32",
          "name": "newAdminRole",
          "type": "bytes32"
        }
      ],
      "name": "RoleAdminChanged",
      "type": "event"
    },
    {
      "anonymous": false,
      "inputs": [
        {
          "indexed": false,
          "internalType": "bytes32",
          "name": "role",
          "type": "bytes32"
        },
        {
          "indexed": false,
          "internalType": "address",
          "name": "sender",
          "type": "address"
        }
      ],
      "name": "RoleGranted",
      "type": "event"
    },
    {
      "anonymous": false,
      "inputs": [
        {
          "indexed": true,
          "internalType": "bytes32",
          "name": "role",
          "type": "bytes32"
        },
        {
          "indexed": true,
          "internalType": "address",
          "name": "account",
          "type": "address"
        },
        {
          "indexed": true,
          "internalType": "address",
          "name": "sender",
          "type": "address"
        }
      ],
      "name": "RoleGranted",
      "type": "event"
    },
    {
      "anonymous": false,
      "inputs": [
        {
          "indexed": true,
          "internalType": "bytes32",
          "name": "role",
          "type": "bytes32"
        },
        {
          "indexed": true,
          "internalType": "address",
          "name": "account",
          "type": "address"
        },
        {
          "indexed": true,
          "internalType": "address",
          "name": "sender",
          "type": "address"
        }
      ],
      "name": "RoleRevoked",
      "type": "event"
    },
    {
      "anonymous": false,
      "inputs": [
        {
          "indexed": false,
          "internalType": "uint256",
          "name": "pid",
          "type": "uint256"
        },
        {
          "indexed": false,
          "internalType": "string",
          "name": "name",
          "type": "string"
        },
        {
          "indexed": false,
          "internalType": "uint256",
          "name": "price",
          "type": "uint256"
        },
        {
          "indexed": false,
          "internalType": "address",
          "name": "staff",
          "type": "address"
        },
        {
          "indexed": false,
          "internalType": "string",
          "name": "info",
          "type": "string"
        },
        {
          "indexed": false,
          "internalType": "uint256",
          "name": "quantity",
          "type": "uint256"
        }
      ],
      "name": "ServiceCreated",
      "type": "event"
    },
    {
      "anonymous": false,
      "inputs": [
        {
          "indexed": false,
          "internalType": "uint256",
          "name": "oid",
          "type": "uint256"
        },
        {
          "indexed": false,
          "internalType": "address payable",
          "name": "seller",
          "type": "address"
        },
        {
          "indexed": false,
          "internalType": "address payable",
          "name": "buyer",
          "type": "address"
        },
        {
          "indexed": false,
          "internalType": "string",
          "name": "status",
          "type": "string"
        },
        {
          "indexed": false,
          "internalType": "uint256",
          "name": "pid",
          "type": "uint256"
        },
        {
          "indexed": false,
          "internalType": "uint256",
          "name": "quantity",
          "type": "uint256"
        }
      ],
      "name": "ServicePurchased",
      "type": "event"
    },
    {
      "anonymous": false,
      "inputs": [
        {
          "indexed": false,
          "internalType": "string",
          "name": "oldStr",
          "type": "string"
        },
        {
          "indexed": false,
          "internalType": "string",
          "name": "newStr",
          "type": "string"
        }
      ],
      "name": "UpdatedMessages",
      "type": "event"
    },
    {
      "anonymous": false,
      "inputs": [
        {
          "indexed": false,
          "internalType": "uint256",
          "name": "uid",
          "type": "uint256"
        },
        {
          "indexed": false,
          "internalType": "string",
          "name": "name",
          "type": "string"
        },
        {
          "indexed": false,
          "internalType": "address",
          "name": "user",
          "type": "address"
        },
        {
          "indexed": false,
          "internalType": "bool",
          "name": "created",
          "type": "bool"
        }
      ],
      "name": "UserCreated",
      "type": "event"
    },
    {
      "inputs": [],
      "name": "DEFAULT_ADMIN_ROLE",
      "outputs": [
        {
          "internalType": "bytes32",
          "name": "",
          "type": "bytes32"
        }
      ],
      "stateMutability": "view",
      "type": "function",
      "constant": true
    },
    {
      "inputs": [],
      "name": "ServiceCount",
      "outputs": [
        {
          "internalType": "uint256",
          "name": "",
          "type": "uint256"
        }
      ],
      "stateMutability": "view",
      "type": "function",
      "constant": true
    },
    {
      "inputs": [
        {
          "internalType": "bytes32",
          "name": "role",
          "type": "bytes32"
        }
      ],
      "name": "getRoleAdmin",
      "outputs": [
        {
          "internalType": "bytes32",
          "name": "",
          "type": "bytes32"
        }
      ],
      "stateMutability": "view",
      "type": "function",
      "constant": true
    },
    {
      "inputs": [
        {
          "internalType": "bytes32",
          "name": "role",
          "type": "bytes32"
        },
        {
          "internalType": "address",
          "name": "account",
          "type": "address"
        }
      ],
      "name": "grantRole",
      "outputs": [],
      "stateMutability": "nonpayable",
      "type": "function"
    },
    {
      "inputs": [
        {
          "internalType": "bytes32",
          "name": "role",
          "type": "bytes32"
        },
        {
          "internalType": "address",
          "name": "account",
          "type": "address"
        }
      ],
      "name": "hasRole",
      "outputs": [
        {
          "internalType": "bool",
          "name": "",
          "type": "bool"
        }
      ],
      "stateMutability": "view",
      "type": "function",
      "constant": true
    },
    {
      "inputs": [],
      "name": "message",
      "outputs": [
        {
          "internalType": "string",
          "name": "",
          "type": "string"
        }
      ],
      "stateMutability": "view",
      "type": "function",
      "constant": true
    },
    {
      "inputs": [],
      "name": "orderCount",
      "outputs": [
        {
          "internalType": "uint256",
          "name": "",
          "type": "uint256"
        }
      ],
      "stateMutability": "view",
      "type": "function",
      "constant": true
    },
    {
      "inputs": [
        {
          "internalType": "uint256",
          "name": "",
          "type": "uint256"
        }
      ],
      "name": "orders",
      "outputs": [
        {
          "internalType": "uint256",
          "name": "oid",
          "type": "uint256"
        },
        {
          "internalType": "address payable",
          "name": "seller",
          "type": "address"
        },
        {
          "internalType": "address payable",
          "name": "buyer",
          "type": "address"
        },
        {
          "internalType": "string",
          "name": "status",
          "type": "string"
        },
        {
          "internalType": "uint256",
          "name": "pid",
          "type": "uint256"
        },
        {
          "internalType": "uint256",
          "name": "quantitiy",
          "type": "uint256"
        }
      ],
      "stateMutability": "view",
      "type": "function",
      "constant": true
    },
    {
      "inputs": [],
      "name": "owner",
      "outputs": [
        {
          "internalType": "address",
          "name": "",
          "type": "address"
        }
      ],
      "stateMutability": "view",
      "type": "function",
      "constant": true
    },
    {
      "inputs": [],
      "name": "renounceOwnership",
      "outputs": [],
      "stateMutability": "nonpayable",
      "type": "function"
    },
    {
      "inputs": [
        {
          "internalType": "bytes32",
          "name": "role",
          "type": "bytes32"
        },
        {
          "internalType": "address",
          "name": "account",
          "type": "address"
        }
      ],
      "name": "renounceRole",
      "outputs": [],
      "stateMutability": "nonpayable",
      "type": "function"
    },
    {
      "inputs": [
        {
          "internalType": "bytes32",
          "name": "role",
          "type": "bytes32"
        },
        {
          "internalType": "address",
          "name": "account",
          "type": "address"
        }
      ],
      "name": "revokeRole",
      "outputs": [],
      "stateMutability": "nonpayable",
      "type": "function"
    },
    {
      "inputs": [
        {
          "internalType": "uint256",
          "name": "",
          "type": "uint256"
        }
      ],
      "name": "services",
      "outputs": [
        {
          "internalType": "uint256",
          "name": "pid",
          "type": "uint256"
        },
        {
          "internalType": "string",
          "name": "name",
          "type": "string"
        },
        {
          "internalType": "uint256",
          "name": "price",
          "type": "uint256"
        },
        {
          "internalType": "address payable",
          "name": "staff",
          "type": "address"
        },
        {
          "internalType": "string",
          "name": "info",
          "type": "string"
        },
        {
          "internalType": "uint256",
          "name": "quantity",
          "type": "uint256"
        }
      ],
      "stateMutability": "view",
      "type": "function",
      "constant": true
    },
    {
      "inputs": [
        {
          "internalType": "bytes4",
          "name": "interfaceId",
          "type": "bytes4"
        }
      ],
      "name": "supportsInterface",
      "outputs": [
        {
          "internalType": "bool",
          "name": "",
          "type": "bool"
        }
      ],
      "stateMutability": "view",
      "type": "function",
      "constant": true
    },
    {
      "inputs": [
        {
          "internalType": "address",
          "name": "newOwner",
          "type": "address"
        }
      ],
      "name": "transferOwnership",
      "outputs": [],
      "stateMutability": "nonpayable",
      "type": "function"
    },
    {
      "inputs": [],
      "name": "userCount",
      "outputs": [
        {
          "internalType": "uint256",
          "name": "",
          "type": "uint256"
        }
      ],
      "stateMutability": "view",
      "type": "function",
      "constant": true
    },
    {
      "inputs": [
        {
          "internalType": "address",
          "name": "",
          "type": "address"
        }
      ],
      "name": "users",
      "outputs": [
        {
          "internalType": "uint256",
          "name": "uid",
          "type": "uint256"
        },
        {
          "internalType": "string",
          "name": "name",
          "type": "string"
        },
        {
          "internalType": "address",
          "name": "user",
          "type": "address"
        },
        {
          "internalType": "bool",
          "name": "created",
          "type": "bool"
        }
      ],
      "stateMutability": "view",
      "type": "function",
      "constant": true
    },
    {
      "stateMutability": "payable",
      "type": "receive",
      "payable": true
    },
    {
      "inputs": [],
      "name": "receiveMoney",
      "outputs": [],
      "stateMutability": "payable",
      "type": "function",
      "payable": true
    },
    {
      "inputs": [
        {
          "internalType": "address",
          "name": "account",
          "type": "address"
        }
      ],
      "name": "isMember",
      "outputs": [
        {
          "internalType": "bool",
          "name": "",
          "type": "bool"
        }
      ],
      "stateMutability": "view",
      "type": "function",
      "constant": true
    },
    {
      "inputs": [
        {
          "internalType": "address",
          "name": "account",
          "type": "address"
        }
      ],
      "name": "addMember",
      "outputs": [],
      "stateMutability": "nonpayable",
      "type": "function"
    },
    {
      "inputs": [
        {
          "internalType": "string",
          "name": "newMessage",
          "type": "string"
        }
      ],
      "name": "update",
      "outputs": [],
      "stateMutability": "nonpayable",
      "type": "function"
    },
    {
      "inputs": [
        {
          "internalType": "string",
          "name": "_name",
          "type": "string"
        }
      ],
      "name": "createUser",
      "outputs": [],
      "stateMutability": "nonpayable",
      "type": "function"
    },
    {
      "inputs": [
        {
          "internalType": "string",
          "name": "_name",
          "type": "string"
        },
        {
          "internalType": "uint256",
          "name": "_price",
          "type": "uint256"
        },
        {
          "internalType": "string",
          "name": "_info",
          "type": "string"
        },
        {
          "internalType": "uint256",
          "name": "_quantity",
          "type": "uint256"
        }
      ],
      "name": "createService",
      "outputs": [],
      "stateMutability": "nonpayable",
      "type": "function"
    },
    {
      "inputs": [
        {
          "internalType": "uint256",
          "name": "_id",
          "type": "uint256"
        },
        {
          "internalType": "uint256",
          "name": "_quantity",
          "type": "uint256"
        }
      ],
      "name": "purchaseService",
      "outputs": [],
      "stateMutability": "payable",
      "type": "function",
      "payable": true
    },
    {
      "inputs": [
        {
          "internalType": "string",
          "name": "_name",
          "type": "string"
        }
      ],
      "name": "addMedicalData",
      "outputs": [
        {
          "internalType": "bool",
          "name": "",
          "type": "bool"
        }
      ],
      "stateMutability": "nonpayable",
      "type": "function"
    },
    {
      "inputs": [
        {
          "internalType": "uint256",
          "name": "sku",
          "type": "uint256"
        }
      ],
      "name": "medicalData",
      "outputs": [],
      "stateMutability": "nonpayable",
      "type": "function"
    },
    {
      "inputs": [],
      "name": "signMedicalData",
      "outputs": [],
      "stateMutability": "nonpayable",
      "type": "function"
    },
    {
      "inputs": [],
      "name": "verify",
      "outputs": [],
      "stateMutability": "nonpayable",
      "type": "function"
    },
    {
      "inputs": [],
      "name": "withdraw",
      "outputs": [],
      "stateMutability": "nonpayable",
      "type": "function"
    }
  ],
  "bytecode": "0x60806040526000600355600060055560006007553480156200002057600080fd5b5060405162003abe38038062003abe83398181016040528101906200004691906200041f565b620000666200005a6200009c60201b60201c565b620000a460201b60201c565b81600990805190602001906200007e929190620002da565b50620000946000801b826200016860201b60201c565b505062000657565b600033905090565b60008060009054906101000a900473ffffffffffffffffffffffffffffffffffffffff169050816000806101000a81548173ffffffffffffffffffffffffffffffffffffffff021916908373ffffffffffffffffffffffffffffffffffffffff1602179055508173ffffffffffffffffffffffffffffffffffffffff168173ffffffffffffffffffffffffffffffffffffffff167f8be0079c531659141344cd1fd0a4f28419497f9722a3daafe3b4186f6b6457e060405160405180910390a35050565b6200017a82826200017e60201b60201c565b5050565b6200019082826200026f60201b60201c565b6200026b57600180600084815260200190815260200160002060000160008373ffffffffffffffffffffffffffffffffffffffff1673ffffffffffffffffffffffffffffffffffffffff16815260200190815260200160002060006101000a81548160ff021916908315150217905550620002106200009c60201b60201c565b73ffffffffffffffffffffffffffffffffffffffff168173ffffffffffffffffffffffffffffffffffffffff16837f2f8788117e7eff1d82e926ec794901d17c78024a50270940304540a733656f0d60405160405180910390a45b5050565b60006001600084815260200190815260200160002060000160008373ffffffffffffffffffffffffffffffffffffffff1673ffffffffffffffffffffffffffffffffffffffff16815260200190815260200160002060009054906101000a900460ff16905092915050565b828054620002e8906200054e565b90600052602060002090601f0160209004810192826200030c576000855562000358565b82601f106200032757805160ff191683800117855562000358565b8280016001018555821562000358579182015b82811115620003575782518255916020019190600101906200033a565b5b5090506200036791906200036b565b5090565b5b80821115620003865760008160009055506001016200036c565b5090565b6000620003a16200039b84620004ae565b62000485565b905082815260208101848484011115620003c057620003bf6200061d565b5b620003cd84828562000518565b509392505050565b600081519050620003e6816200063d565b92915050565b600082601f83011262000404576200040362000618565b5b8151620004168482602086016200038a565b91505092915050565b6000806040838503121562000439576200043862000627565b5b600083015167ffffffffffffffff8111156200045a576200045962000622565b5b6200046885828601620003ec565b92505060206200047b85828601620003d5565b9150509250929050565b600062000491620004a4565b90506200049f828262000584565b919050565b6000604051905090565b600067ffffffffffffffff821115620004cc57620004cb620005e9565b5b620004d7826200062c565b9050602081019050919050565b6000620004f182620004f8565b9050919050565b600073ffffffffffffffffffffffffffffffffffffffff82169050919050565b60005b83811015620005385780820151818401526020810190506200051b565b8381111562000548576000848401525b50505050565b600060028204905060018216806200056757607f821691505b602082108114156200057e576200057d620005ba565b5b50919050565b6200058f826200062c565b810181811067ffffffffffffffff82111715620005b157620005b0620005e9565b5b80604052505050565b7f4e487b7100000000000000000000000000000000000000000000000000000000600052602260045260246000fd5b7f4e487b7100000000000000000000000000000000000000000000000000000000600052604160045260246000fd5b600080fd5b600080fd5b600080fd5b600080fd5b6000601f19601f8301169050919050565b6200064881620004e4565b81146200065457600080fd5b50565b61345780620006676000396000f3fe6080604052600436106101c65760003560e01c8063715018a6116100f7578063a85c38ef11610095578063d547741f11610064578063d547741f14610630578063e21f37ce14610659578063f2fde38b14610684578063fc735e99146106ad576101d5565b8063a85c38ef14610543578063a87430ba14610585578063c22c4f43146105c5578063ca6d56dc14610607576101d5565b806391d14854116100d157806391d1485414610475578063a0113bf9146104b2578063a217fddf146104db578063a230c52414610506576101d5565b8063715018a6146103f657806375ee3e7c1461040d5780638da5cb5b1461044a576101d5565b80633ccfd60b116101645780634bf1d6cb1161013e5780634bf1d6cb1461037e578063507ffba5146103a75780636d26ec18146103d05780637104a9a7146103da576101d5565b80633ccfd60b146103135780633d7403a31461032a5780633f20547414610353576101d5565b8063248a9ca3116101a0578063248a9ca31461026d5780632a26ac93146102aa5780632f2ff15d146102c157806336568abe146102ea576101d5565b806301ffc9a7146101da57806307973ccf146102175780632453ffa814610242576101d5565b366101d5576101d36106c4565b005b600080fd5b3480156101e657600080fd5b5061020160048036038101906101fc9190612432565b6107ef565b60405161020e91906128d1565b60405180910390f35b34801561022357600080fd5b5061022c610869565b6040516102399190612ae9565b60405180910390f35b34801561024e57600080fd5b5061025761086f565b6040516102649190612ae9565b60405180910390f35b34801561027957600080fd5b50610294600480360381019061028f91906123c5565b610875565b6040516102a191906128ec565b60405180910390f35b3480156102b657600080fd5b506102bf610895565b005b3480156102cd57600080fd5b506102e860048036038101906102e391906123f2565b610897565b005b3480156102f657600080fd5b50610311600480360381019061030c91906123f2565b6108c0565b005b34801561031f57600080fd5b50610328610943565b005b34801561033657600080fd5b50610351600480360381019061034c919061245f565b6109c1565b005b34801561035f57600080fd5b50610368610b20565b6040516103759190612ae9565b60405180910390f35b34801561038a57600080fd5b506103a560048036038101906103a09190612547565b610b26565b005b3480156103b357600080fd5b506103ce60048036038101906103c9919061245f565b610b29565b005b6103d86106c4565b005b6103f460048036038101906103ef9190612574565b610d26565b005b34801561040257600080fd5b5061040b611336565b005b34801561041957600080fd5b50610434600480360381019061042f919061245f565b6113be565b60405161044191906128d1565b60405180910390f35b34801561045657600080fd5b5061045f6113c5565b60405161046c919061288d565b60405180910390f35b34801561048157600080fd5b5061049c600480360381019061049791906123f2565b6113ee565b6040516104a991906128d1565b60405180910390f35b3480156104be57600080fd5b506104d960048036038101906104d491906124a8565b611459565b005b3480156104e757600080fd5b506104f0611675565b6040516104fd91906128ec565b60405180910390f35b34801561051257600080fd5b5061052d60048036038101906105289190612398565b61167c565b60405161053a91906128d1565b60405180910390f35b34801561054f57600080fd5b5061056a60048036038101906105659190612547565b611692565b60405161057c96959493929190612b04565b60405180910390f35b34801561059157600080fd5b506105ac60048036038101906105a79190612398565b611796565b6040516105bc9493929190612bd2565b60405180910390f35b3480156105d157600080fd5b506105ec60048036038101906105e79190612547565b61187b565b6040516105fe96959493929190612c1e565b60405180910390f35b34801561061357600080fd5b5061062e60048036038101906106299190612398565b6119e7565b005b34801561063c57600080fd5b50610657600480360381019061065291906123f2565b611aaf565b005b34801561066557600080fd5b5061066e611ad8565b60405161067b9190612930565b60405180910390f35b34801561069057600080fd5b506106ab60048036038101906106a69190612398565b611b66565b005b3480156106b957600080fd5b506106c2611c5e565b005b600260003373ffffffffffffffffffffffffffffffffffffffff1673ffffffffffffffffffffffffffffffffffffffff1681526020019081526020016000205434600260003373ffffffffffffffffffffffffffffffffffffffff1673ffffffffffffffffffffffffffffffffffffffff1681526020019081526020016000205461074f9190612d79565b101561075e5761075d613005565b5b34600260003373ffffffffffffffffffffffffffffffffffffffff1673ffffffffffffffffffffffffffffffffffffffff16815260200190815260200160002060008282546107ad9190612d79565b925050819055507f71c66459b89364f3bf3c906b1a1d8652cc2920224be995f47e1bd17fd142822233346040516107e59291906128a8565b60405180910390a1565b60007f7965db0b000000000000000000000000000000000000000000000000000000007bffffffffffffffffffffffffffffffffffffffffffffffffffffffff1916827bffffffffffffffffffffffffffffffffffffffffffffffffffffffff19161480610862575061086182611c60565b5b9050919050565b60075481565b60035481565b600060016000838152602001908152602001600020600101549050919050565b565b6108a082610875565b6108b1816108ac611cca565b611cd2565b6108bb8383611d6f565b505050565b6108c8611cca565b73ffffffffffffffffffffffffffffffffffffffff168173ffffffffffffffffffffffffffffffffffffffff1614610935576040517f08c379a000000000000000000000000000000000000000000000000000000000815260040161092c90612ac9565b60405180910390fd5b61093f8282611e4f565b5050565b61094b611cca565b73ffffffffffffffffffffffffffffffffffffffff166109696113c5565b73ffffffffffffffffffffffffffffffffffffffff16146109bf576040517f08c379a00000000000000000000000000000000000000000000000000000000081526004016109b690612a09565b60405180910390fd5b565b6109c9611cca565b73ffffffffffffffffffffffffffffffffffffffff166109e76113c5565b73ffffffffffffffffffffffffffffffffffffffff1614610a3d576040517f08c379a0000000000000000000000000000000000000000000000000000000008152600401610a3490612a09565b60405180910390fd5b600060098054610a4c90612f59565b80601f0160208091040260200160405190810160405280929190818152602001828054610a7890612f59565b8015610ac55780601f10610a9a57610100808354040283529160200191610ac5565b820191906000526020600020905b815481529060010190602001808311610aa857829003601f168201915b505050505090508160099080519060200190610ae2929190612231565b507ff91d506d7335e83e4869a58cd98e0557cdcef6f507ba1e52725521305626d05b8183604051610b14929190612952565b60405180910390a15050565b60055481565b50565b60001515600860003373ffffffffffffffffffffffffffffffffffffffff1673ffffffffffffffffffffffffffffffffffffffff16815260200190815260200160002060020160149054906101000a900460ff16151514610bbf576040517f08c379a0000000000000000000000000000000000000000000000000000000008152600401610bb690612a49565b60405180910390fd5b60076000815480929190610bd290612fbc565b9190505550604051806080016040528060075481526020018281526020013373ffffffffffffffffffffffffffffffffffffffff16815260200160011515815250600860003373ffffffffffffffffffffffffffffffffffffffff1673ffffffffffffffffffffffffffffffffffffffff168152602001908152602001600020600082015181600001556020820151816001019080519060200190610c78929190612231565b5060408201518160020160006101000a81548173ffffffffffffffffffffffffffffffffffffffff021916908373ffffffffffffffffffffffffffffffffffffffff16021790555060608201518160020160146101000a81548160ff0219169083151502179055509050507f300b832de7c9083100422c588f9614bbfa337a8c3440e3338067fe3bedc68be460075482336001604051610d1b9493929190612bd2565b60405180910390a150565b610d2f3361167c565b610d6e576040517f08c379a0000000000000000000000000000000000000000000000000000000008152600401610d6590612a69565b60405180910390fd5b6000600660008481526020019081526020016000206040518060c001604052908160008201548152602001600182018054610da890612f59565b80601f0160208091040260200160405190810160405280929190818152602001828054610dd490612f59565b8015610e215780601f10610df657610100808354040283529160200191610e21565b820191906000526020600020905b815481529060010190602001808311610e0457829003601f168201915b50505050508152602001600282015481526020016003820160009054906101000a900473ffffffffffffffffffffffffffffffffffffffff1673ffffffffffffffffffffffffffffffffffffffff1673ffffffffffffffffffffffffffffffffffffffff168152602001600482018054610e9a90612f59565b80601f0160208091040260200160405190810160405280929190818152602001828054610ec690612f59565b8015610f135780601f10610ee857610100808354040283529160200191610f13565b820191906000526020600020905b815481529060010190602001808311610ef657829003601f168201915b50505050508152602001600582015481525050905060008160600151905060008260000151118015610f4b5750600554826000015111155b610f8a576040517f08c379a0000000000000000000000000000000000000000000000000000000008152600401610f8190612aa9565b60405180910390fd5b60008260a0015111610fd1576040517f08c379a0000000000000000000000000000000000000000000000000000000008152600401610fc890612a29565b60405180910390fd5b828260a001511015611018576040517f08c379a000000000000000000000000000000000000000000000000000000000815260040161100f90612a29565b60405180910390fd5b670de0b6b3a76400008383604001516110319190612dcf565b61103b9190612dcf565b34101561107d576040517f08c379a0000000000000000000000000000000000000000000000000000000008152600401611074906129c9565b60405180910390fd5b3373ffffffffffffffffffffffffffffffffffffffff168173ffffffffffffffffffffffffffffffffffffffff1614156110ec576040517f08c379a00000000000000000000000000000000000000000000000000000000081526004016110e390612a89565b60405180910390fd5b600360008154809291906110ff90612fbc565b919050555060018260a001516111159190612e29565b60066000868152602001908152602001600020600501819055506040518060c0016040528060035481526020018273ffffffffffffffffffffffffffffffffffffffff1681526020013373ffffffffffffffffffffffffffffffffffffffff1681526020016040518060400160405280600781526020017f4f72646572656400000000000000000000000000000000000000000000000000815250815260200183600001518152602001848152506004600060035481526020019081526020016000206000820151816000015560208201518160010160006101000a81548173ffffffffffffffffffffffffffffffffffffffff021916908373ffffffffffffffffffffffffffffffffffffffff16021790555060408201518160020160006101000a81548173ffffffffffffffffffffffffffffffffffffffff021916908373ffffffffffffffffffffffffffffffffffffffff160217905550606082015181600301908051906020019061128c929190612231565b506080820151816004015560a082015181600501559050503373ffffffffffffffffffffffffffffffffffffffff166108fc349081150290604051600060405180830381858888f193505050501580156112ea573d6000803e3d6000fd5b507f4d717ff548d134eb1e127cd274c3685058ad9a14c9a8f06d524fd5264a5857da6003548233856000015187604051611328959493929190612b6c565b60405180910390a150505050565b61133e611cca565b73ffffffffffffffffffffffffffffffffffffffff1661135c6113c5565b73ffffffffffffffffffffffffffffffffffffffff16146113b2576040517f08c379a00000000000000000000000000000000000000000000000000000000081526004016113a990612a09565b60405180910390fd5b6113bc6000611f31565b565b6000919050565b60008060009054906101000a900473ffffffffffffffffffffffffffffffffffffffff16905090565b60006001600084815260200190815260200160002060000160008373ffffffffffffffffffffffffffffffffffffffff1673ffffffffffffffffffffffffffffffffffffffff16815260200190815260200160002060009054906101000a900460ff16905092915050565b611461611cca565b73ffffffffffffffffffffffffffffffffffffffff1661147f6113c5565b73ffffffffffffffffffffffffffffffffffffffff16146114d5576040517f08c379a00000000000000000000000000000000000000000000000000000000081526004016114cc90612a09565b60405180910390fd5b60008311611518576040517f08c379a000000000000000000000000000000000000000000000000000000000815260040161150f906129e9565b60405180910390fd5b6005600081548092919061152b90612fbc565b91905055506040518060c0016040528060055481526020018581526020018481526020013373ffffffffffffffffffffffffffffffffffffffff168152602001838152602001828152506006600060055481526020019081526020016000206000820151816000015560208201518160010190805190602001906115b0929190612231565b506040820151816002015560608201518160030160006101000a81548173ffffffffffffffffffffffffffffffffffffffff021916908373ffffffffffffffffffffffffffffffffffffffff160217905550608082015181600401908051906020019061161e929190612231565b5060a082015181600501559050507fafbc3f5e12fb3f1b211843b7edaeb13de29acb4fbc41c93cbc55f5f1fb177bb5600554858533868660405161166796959493929190612c8d565b60405180910390a150505050565b6000801b81565b600061168b6000801b836113ee565b9050919050565b60046020528060005260406000206000915090508060000154908060010160009054906101000a900473ffffffffffffffffffffffffffffffffffffffff16908060020160009054906101000a900473ffffffffffffffffffffffffffffffffffffffff169080600301805461170790612f59565b80601f016020809104026020016040519081016040528092919081815260200182805461173390612f59565b80156117805780601f1061175557610100808354040283529160200191611780565b820191906000526020600020905b81548152906001019060200180831161176357829003601f168201915b5050505050908060040154908060050154905086565b60086020528060005260406000206000915090508060000154908060010180546117bf90612f59565b80601f01602080910402602001604051908101604052809291908181526020018280546117eb90612f59565b80156118385780601f1061180d57610100808354040283529160200191611838565b820191906000526020600020905b81548152906001019060200180831161181b57829003601f168201915b5050505050908060020160009054906101000a900473ffffffffffffffffffffffffffffffffffffffff16908060020160149054906101000a900460ff16905084565b60066020528060005260406000206000915090508060000154908060010180546118a490612f59565b80601f01602080910402602001604051908101604052809291908181526020018280546118d090612f59565b801561191d5780601f106118f25761010080835404028352916020019161191d565b820191906000526020600020905b81548152906001019060200180831161190057829003601f168201915b5050505050908060020154908060030160009054906101000a900473ffffffffffffffffffffffffffffffffffffffff169080600401805461195e90612f59565b80601f016020809104026020016040519081016040528092919081815260200182805461198a90612f59565b80156119d75780601f106119ac576101008083540402835291602001916119d7565b820191906000526020600020905b8154815290600101906020018083116119ba57829003601f168201915b5050505050908060050154905086565b6119ef611cca565b73ffffffffffffffffffffffffffffffffffffffff16611a0d6113c5565b73ffffffffffffffffffffffffffffffffffffffff1614611a63576040517f08c379a0000000000000000000000000000000000000000000000000000000008152600401611a5a90612a09565b60405180910390fd5b611a706000801b82610897565b7f2ae6a113c0ed5b78a53413ffbb7679881f11145ccfba4fb92e863dfcd5a1d2f36000801b82604051611aa4929190612907565b60405180910390a150565b611ab882610875565b611ac981611ac4611cca565b611cd2565b611ad38383611e4f565b505050565b60098054611ae590612f59565b80601f0160208091040260200160405190810160405280929190818152602001828054611b1190612f59565b8015611b5e5780601f10611b3357610100808354040283529160200191611b5e565b820191906000526020600020905b815481529060010190602001808311611b4157829003601f168201915b505050505081565b611b6e611cca565b73ffffffffffffffffffffffffffffffffffffffff16611b8c6113c5565b73ffffffffffffffffffffffffffffffffffffffff1614611be2576040517f08c379a0000000000000000000000000000000000000000000000000000000008152600401611bd990612a09565b60405180910390fd5b600073ffffffffffffffffffffffffffffffffffffffff168173ffffffffffffffffffffffffffffffffffffffff161415611c52576040517f08c379a0000000000000000000000000000000000000000000000000000000008152600401611c49906129a9565b60405180910390fd5b611c5b81611f31565b50565b565b60007f01ffc9a7000000000000000000000000000000000000000000000000000000007bffffffffffffffffffffffffffffffffffffffffffffffffffffffff1916827bffffffffffffffffffffffffffffffffffffffffffffffffffffffff1916149050919050565b600033905090565b611cdc82826113ee565b611d6b57611d018173ffffffffffffffffffffffffffffffffffffffff166014611ff5565b611d0f8360001c6020611ff5565b604051602001611d20929190612853565b6040516020818303038152906040526040517f08c379a0000000000000000000000000000000000000000000000000000000008152600401611d629190612930565b60405180910390fd5b5050565b611d7982826113ee565b611e4b57600180600084815260200190815260200160002060000160008373ffffffffffffffffffffffffffffffffffffffff1673ffffffffffffffffffffffffffffffffffffffff16815260200190815260200160002060006101000a81548160ff021916908315150217905550611df0611cca565b73ffffffffffffffffffffffffffffffffffffffff168173ffffffffffffffffffffffffffffffffffffffff16837f2f8788117e7eff1d82e926ec794901d17c78024a50270940304540a733656f0d60405160405180910390a45b5050565b611e5982826113ee565b15611f2d5760006001600084815260200190815260200160002060000160008373ffffffffffffffffffffffffffffffffffffffff1673ffffffffffffffffffffffffffffffffffffffff16815260200190815260200160002060006101000a81548160ff021916908315150217905550611ed2611cca565b73ffffffffffffffffffffffffffffffffffffffff168173ffffffffffffffffffffffffffffffffffffffff16837ff6391f5c32d9c69d2a47ea670b442974b53935d1edc7fd64eb21e047a839171b60405160405180910390a45b5050565b60008060009054906101000a900473ffffffffffffffffffffffffffffffffffffffff169050816000806101000a81548173ffffffffffffffffffffffffffffffffffffffff021916908373ffffffffffffffffffffffffffffffffffffffff1602179055508173ffffffffffffffffffffffffffffffffffffffff168173ffffffffffffffffffffffffffffffffffffffff167f8be0079c531659141344cd1fd0a4f28419497f9722a3daafe3b4186f6b6457e060405160405180910390a35050565b6060600060028360026120089190612dcf565b6120129190612d79565b67ffffffffffffffff81111561202b5761202a6130c1565b5b6040519080825280601f01601f19166020018201604052801561205d5781602001600182028036833780820191505090505b5090507f30000000000000000000000000000000000000000000000000000000000000008160008151811061209557612094613092565b5b60200101907effffffffffffffffffffffffffffffffffffffffffffffffffffffffffffff1916908160001a9053507f7800000000000000000000000000000000000000000000000000000000000000816001815181106120f9576120f8613092565b5b60200101907effffffffffffffffffffffffffffffffffffffffffffffffffffffffffffff1916908160001a905350600060018460026121399190612dcf565b6121439190612d79565b90505b60018111156121e3577f3031323334353637383961626364656600000000000000000000000000000000600f86166010811061218557612184613092565b5b1a60f81b82828151811061219c5761219b613092565b5b60200101907effffffffffffffffffffffffffffffffffffffffffffffffffffffffffffff1916908160001a905350600485901c9450806121dc90612f2f565b9050612146565b5060008414612227576040517f08c379a000000000000000000000000000000000000000000000000000000000815260040161221e90612989565b60405180910390fd5b8091505092915050565b82805461223d90612f59565b90600052602060002090601f01602090048101928261225f57600085556122a6565b82601f1061227857805160ff19168380011785556122a6565b828001600101855582156122a6579182015b828111156122a557825182559160200191906001019061228a565b5b5090506122b391906122b7565b5090565b5b808211156122d05760008160009055506001016122b8565b5090565b60006122e76122e284612d21565b612cfc565b905082815260208101848484011115612303576123026130f5565b5b61230e848285612eed565b509392505050565b600081359050612325816133c5565b92915050565b60008135905061233a816133dc565b92915050565b60008135905061234f816133f3565b92915050565b600082601f83011261236a576123696130f0565b5b813561237a8482602086016122d4565b91505092915050565b6000813590506123928161340a565b92915050565b6000602082840312156123ae576123ad6130ff565b5b60006123bc84828501612316565b91505092915050565b6000602082840312156123db576123da6130ff565b5b60006123e98482850161232b565b91505092915050565b60008060408385031215612409576124086130ff565b5b60006124178582860161232b565b925050602061242885828601612316565b9150509250929050565b600060208284031215612448576124476130ff565b5b600061245684828501612340565b91505092915050565b600060208284031215612475576124746130ff565b5b600082013567ffffffffffffffff811115612493576124926130fa565b5b61249f84828501612355565b91505092915050565b600080600080608085870312156124c2576124c16130ff565b5b600085013567ffffffffffffffff8111156124e0576124df6130fa565b5b6124ec87828801612355565b94505060206124fd87828801612383565b935050604085013567ffffffffffffffff81111561251e5761251d6130fa565b5b61252a87828801612355565b925050606061253b87828801612383565b91505092959194509250565b60006020828403121561255d5761255c6130ff565b5b600061256b84828501612383565b91505092915050565b6000806040838503121561258b5761258a6130ff565b5b600061259985828601612383565b92505060206125aa85828601612383565b9150509250929050565b6125bd81612e6f565b82525050565b6125cc81612e5d565b82525050565b6125db81612e81565b82525050565b6125ea81612e8d565b82525050565b60006125fb82612d52565b6126058185612d5d565b9350612615818560208601612efc565b61261e81613104565b840191505092915050565b600061263482612d52565b61263e8185612d6e565b935061264e818560208601612efc565b80840191505092915050565b6000612667602083612d5d565b915061267282613115565b602082019050919050565b600061268a602683612d5d565b91506126958261313e565b604082019050919050565b60006126ad601a83612d5d565b91506126b88261318d565b602082019050919050565b60006126d0600d83612d5d565b91506126db826131b6565b602082019050919050565b60006126f3600783612d5d565b91506126fe826131df565b602082019050919050565b6000612716602083612d5d565b915061272182613208565b602082019050919050565b6000612739601383612d5d565b915061274482613231565b602082019050919050565b600061275c601483612d5d565b91506127678261325a565b602082019050919050565b600061277f602483612d5d565b915061278a82613283565b604082019050919050565b60006127a2601783612d6e565b91506127ad826132d2565b601782019050919050565b60006127c5601083612d5d565b91506127d0826132fb565b602082019050919050565b60006127e8601283612d5d565b91506127f382613324565b602082019050919050565b600061280b601183612d6e565b91506128168261334d565b601182019050919050565b600061282e602f83612d5d565b915061283982613376565b604082019050919050565b61284d81612ee3565b82525050565b600061285e82612795565b915061286a8285612629565b9150612875826127fe565b91506128818284612629565b91508190509392505050565b60006020820190506128a260008301846125c3565b92915050565b60006040820190506128bd60008301856125c3565b6128ca6020830184612844565b9392505050565b60006020820190506128e660008301846125d2565b92915050565b600060208201905061290160008301846125e1565b92915050565b600060408201905061291c60008301856125e1565b61292960208301846125c3565b9392505050565b6000602082019050818103600083015261294a81846125f0565b905092915050565b6000604082019050818103600083015261296c81856125f0565b9050818103602083015261298081846125f0565b90509392505050565b600060208201905081810360008301526129a28161265a565b9050919050565b600060208201905081810360008301526129c28161267d565b9050919050565b600060208201905081810360008301526129e2816126a0565b9050919050565b60006020820190508181036000830152612a02816126c3565b9050919050565b60006020820190508181036000830152612a2281612709565b9050919050565b60006020820190508181036000830152612a428161272c565b9050919050565b60006020820190508181036000830152612a628161274f565b9050919050565b60006020820190508181036000830152612a8281612772565b9050919050565b60006020820190508181036000830152612aa2816127b8565b9050919050565b60006020820190508181036000830152612ac2816127db565b9050919050565b60006020820190508181036000830152612ae281612821565b9050919050565b6000602082019050612afe6000830184612844565b92915050565b600060c082019050612b196000830189612844565b612b2660208301886125b4565b612b3360408301876125b4565b8181036060830152612b4581866125f0565b9050612b546080830185612844565b612b6160a0830184612844565b979650505050505050565b600060c082019050612b816000830188612844565b612b8e60208301876125b4565b612b9b60408301866125b4565b8181036060830152612bac816126e6565b9050612bbb6080830185612844565b612bc860a0830184612844565b9695505050505050565b6000608082019050612be76000830187612844565b8181036020830152612bf981866125f0565b9050612c0860408301856125c3565b612c1560608301846125d2565b95945050505050565b600060c082019050612c336000830189612844565b8181036020830152612c4581886125f0565b9050612c546040830187612844565b612c6160608301866125b4565b8181036080830152612c7381856125f0565b9050612c8260a0830184612844565b979650505050505050565b600060c082019050612ca26000830189612844565b8181036020830152612cb481886125f0565b9050612cc36040830187612844565b612cd060608301866125c3565b8181036080830152612ce281856125f0565b9050612cf160a0830184612844565b979650505050505050565b6000612d06612d17565b9050612d128282612f8b565b919050565b6000604051905090565b600067ffffffffffffffff821115612d3c57612d3b6130c1565b5b612d4582613104565b9050602081019050919050565b600081519050919050565b600082825260208201905092915050565b600081905092915050565b6000612d8482612ee3565b9150612d8f83612ee3565b9250827fffffffffffffffffffffffffffffffffffffffffffffffffffffffffffffffff03821115612dc457612dc3613034565b5b828201905092915050565b6000612dda82612ee3565b9150612de583612ee3565b9250817fffffffffffffffffffffffffffffffffffffffffffffffffffffffffffffffff0483118215151615612e1e57612e1d613034565b5b828202905092915050565b6000612e3482612ee3565b9150612e3f83612ee3565b925082821015612e5257612e51613034565b5b828203905092915050565b6000612e6882612ec3565b9050919050565b6000612e7a82612ec3565b9050919050565b60008115159050919050565b6000819050919050565b60007fffffffff0000000000000000000000000000000000000000000000000000000082169050919050565b600073ffffffffffffffffffffffffffffffffffffffff82169050919050565b6000819050919050565b82818337600083830152505050565b60005b83811015612f1a578082015181840152602081019050612eff565b83811115612f29576000848401525b50505050565b6000612f3a82612ee3565b91506000821415612f4e57612f4d613034565b5b600182039050919050565b60006002820490506001821680612f7157607f821691505b60208210811415612f8557612f84613063565b5b50919050565b612f9482613104565b810181811067ffffffffffffffff82111715612fb357612fb26130c1565b5b80604052505050565b6000612fc782612ee3565b91507fffffffffffffffffffffffffffffffffffffffffffffffffffffffffffffffff821415612ffa57612ff9613034565b5b600182019050919050565b7f4e487b7100000000000000000000000000000000000000000000000000000000600052600160045260246000fd5b7f4e487b7100000000000000000000000000000000000000000000000000000000600052601160045260246000fd5b7f4e487b7100000000000000000000000000000000000000000000000000000000600052602260045260246000fd5b7f4e487b7100000000000000000000000000000000000000000000000000000000600052603260045260246000fd5b7f4e487b7100000000000000000000000000000000000000000000000000000000600052604160045260246000fd5b600080fd5b600080fd5b600080fd5b600080fd5b6000601f19601f8301169050919050565b7f537472696e67733a20686578206c656e67746820696e73756666696369656e74600082015250565b7f4f776e61626c653a206e6577206f776e657220697320746865207a65726f206160008201527f6464726573730000000000000000000000000000000000000000000000000000602082015250565b7f4e6f7420656e6f75676820657468657220696e2057616c6c6574000000000000600082015250565b7f496e76616c696420507269636500000000000000000000000000000000000000600082015250565b7f4f72646572656400000000000000000000000000000000000000000000000000600082015250565b7f4f776e61626c653a2063616c6c6572206973206e6f7420746865206f776e6572600082015250565b7f496e73756666696369656e742053746f636b2100000000000000000000000000600082015250565b7f5573657220616c72656164792063726561746564000000000000000000000000600082015250565b7f5265737472696374656420746f2052656769737465726564205573657273204f60008201527f6e6c792e00000000000000000000000000000000000000000000000000000000602082015250565b7f416363657373436f6e74726f6c3a206163636f756e7420000000000000000000600082015250565b7f496e76616c696420507572636861736500000000000000000000000000000000600082015250565b7f496e76616c69642050726f647563742049440000000000000000000000000000600082015250565b7f206973206d697373696e6720726f6c6520000000000000000000000000000000600082015250565b7f416363657373436f6e74726f6c3a2063616e206f6e6c792072656e6f756e636560008201527f20726f6c657320666f722073656c660000000000000000000000000000000000602082015250565b6133ce81612e5d565b81146133d957600080fd5b50565b6133e581612e8d565b81146133f057600080fd5b50565b6133fc81612e97565b811461340757600080fd5b50565b61341381612ee3565b811461341e57600080fd5b5056fea26469706673582212208f9e471a18b9481c51809096e02ae82cd48d0616c9a95bda2279774fc619317464736f6c63430008050033",
  "immutableReferences": {},
  "source": "/// SPDX-License-Identifier: MIT\r\n\r\n/// Specifies the version of Solidity\r\npragma solidity 0.8.5;\r\n\r\nimport \"@openzeppelin/contracts/access/Ownable.sol\";\r\nimport \"@openzeppelin/contracts/access/AccessControl.sol\";\r\n\r\n/// @title Contract for Blockchain Medical System\r\n/// @author Samuel Tan\r\n/// @notice Allows Medical and non-medical users to purchase medical services and service management\r\n/// @dev Inherit from both OpenZeppelin Ownable and AccessControl contracts to implement role-based and owner-only functions \r\ncontract BMS is Ownable, AccessControl {\r\n\r\n    /// @notice Protect our users balance from other contracts\r\n    mapping (address => uint256) private balances;\r\n\r\n\t\t/// @notice Struts mapping for Orders created \r\n    uint256 public orderCount = 0;\r\n    mapping(uint256 => Order) public orders;\r\n\r\n\t\t/// @notice Struts mapping for services created\r\n    uint256 public ServiceCount = 0;\r\n    mapping(uint256 => Service) public services;\r\n\r\n\t\t/// @notice Struts mapping for users created\r\n    uint256 public userCount = 0;\r\n    mapping(address => User) public users;\r\n \r\n    struct Order {\r\n        uint256 oid;\r\n        address payable seller;\r\n        address payable buyer;\r\n        string status;\r\n        uint256 pid;\r\n        uint256 quantitiy;\r\n    }\r\n\r\n    struct Service {\r\n        uint256 pid;\r\n        string name;\r\n        uint256 price;\r\n        address payable staff;\r\n        string info;\r\n        uint256 quantity;\r\n    }\r\n\r\n    struct User {\r\n        uint256 uid;\r\n        string name;\r\n        address user;\r\n        bool created;\r\n    }\r\n\r\n    /// @notice Emitted a health/medical service has been created\r\n    /// @param pid service id\r\n    /// @param name service name\r\n\t\t/// @param price service price\r\n\t\t/// @param staff the medical staff/owner address\r\n\t\t/// @param info service information\r\n\t\t/// @param quantity service quantity\r\n    event ServiceCreated(\r\n        uint256 pid,\r\n        string name,\r\n        uint256 price,\r\n        address staff,\r\n        string info,\r\n        uint256 quantity\r\n    );\r\n\r\n\t\t/// @notice Emitted a new user has been created\r\n    /// @param uid user id\r\n    /// @param name user name\r\n\t\t/// @param created true or false\r\n    event  UserCreated(\r\n        uint256 uid,\r\n        string name,\r\n        address user,\r\n        bool created\r\n    );\r\n\r\n    /// @notice Emitted a health/medical service has been purchased\r\n    /// @param oid order id\r\n    /// @param seller owner's address\r\n\t\t/// @param buyer seller's address\r\n\t\t/// @param status to be set as Sold\r\n\t\t/// @param pid service id\r\n\t\t/// @param quantity service quantity\r\n    event ServicePurchased(\r\n        uint256 oid,\r\n        address payable seller,\r\n        address payable buyer,\r\n        string status,\r\n        uint256 pid,\r\n        uint256 quantity\r\n    );\r\n\r\n\t\t/// @notice Emitted the MOTD has been updated\r\n    /// @param oldStr old message\r\n    /// @param newStr new message\r\n\t  event UpdatedMessages(\r\n\t\tstring oldStr,\r\n\t\tstring newStr\r\n    );\r\n\r\n\t\t/// @notice Emitted user has been approved and grant new role\r\n    /// @param role DEFAULT_ADMIN_ROLE role to be granted\r\n    /// @param sender the user's address\r\n    event RoleGranted (\r\n        bytes32 role,\r\n        address sender\r\n    );\r\n\r\n\t\t/// @notice Emitted payment has been received\r\n    /// @param accountAddress buyer's address\r\n    /// @param amount amount to be sent\r\n    event LogPaymentReceived(\r\n        address accountAddress,\r\n        uint256 amount\r\n    );\r\n\r\n\t\t/// @notice The MOTD message\r\n\t\tstring public message;\r\n\r\n\t\t/// @notice Set the MOTD and assign owner with DEFAULT_ADMIN_ROLE during deployment of the contract\r\n\t\t/// @dev need to set the message and owner address in 2_deploy_contracts.js before deployment\r\n    constructor(string memory initMessage, address root) {\r\n      \r\n\t  /// @dev Accepts a string argument `initMessage` and sets the value into the contract's `message` storage variable).\r\n      message = initMessage;\r\n      _setupRole(DEFAULT_ADMIN_ROLE, root);\r\n\r\n    }\r\n\r\n    /// @notice A modifier to restrict to registered users only functions\r\n    modifier onlyMember() {\r\n    require(isMember(msg.sender), \"Restricted to Registered Users Only.\");\r\n    _;\r\n    }\r\n\r\n    /// @notice This fallback function will keep all the incoming Ether\r\n    receive() external payable {\r\n        receiveMoney();\r\n    }\r\n\r\n\t\t/// @notice Performs the balance deduction from sender's wallet\r\n    function receiveMoney() public payable {\r\n        assert(balances[msg.sender] + msg.value >= balances[msg.sender]);\r\n        balances[msg.sender] += msg.value;\r\n        emit LogPaymentReceived(msg.sender, msg.value);\r\n    }\r\n\r\n    /// @notice Return `true` if the `account` is Registered.\r\n\t\t/// @param account user's address\r\n    function isMember(address account) public virtual view returns (bool){\r\n    return hasRole(DEFAULT_ADMIN_ROLE, account);\r\n    }\r\n\r\n    /// @notice Owner to set register user account as approved user.\r\n\t\t/// @param account user's address\r\n    function addMember(address account) public virtual onlyOwner {\r\n    grantRole(DEFAULT_ADMIN_ROLE, account);\r\n    emit RoleGranted(DEFAULT_ADMIN_ROLE, account);\r\n    }\r\n   \r\n\t  /// @notice A public function that accepts a string argument and updates the `MOTD` storage variable. Only accessibe by Owner\r\n\t\t/// @param newMessage the new MOTD to be set\r\n    function update(string memory newMessage) public onlyOwner{\r\n      string memory oldMsg = message;\r\n      message = newMessage;\r\n      emit UpdatedMessages(oldMsg, newMessage);\r\n    }\r\n\r\n    /// @notice Medical Staffs/Patient will have to register themselves and onboard somehow on the contract\r\n\t\t/// @param _name the name that will be set by the user\r\n    function createUser(string memory _name) public{\r\n      ///Check for repeated address\r\n      require(users[msg.sender].created == false, 'User already created');\r\n      ///Increase userCount\r\n      userCount++;\r\n      ///Add user\r\n      users[msg.sender] = User(userCount, _name, msg.sender, true);\r\n      ///Trigger an event\r\n      emit UserCreated(userCount, _name, msg.sender, true);\r\n    }\r\n\r\n    /// @notice Medical Staffs (Owner) can create health services which can be purchased by the users only can be access by the Owner\r\n\t\t/// @param _name the name of the service\r\n\t\t/// @param _price the price of the service\r\n\t\t/// @param _info short description of the service\r\n\t\t/// @param _quantity the number of this servicee to be created\r\n\t\t/// @dev Check for price to be greater than 0 \r\n    function createService(string memory _name, uint256 _price, string memory _info, uint256 _quantity) public onlyOwner{\r\n      /// Require a valid price\r\n      require(_price > 0, 'Invalid Price');\r\n      /// Increment product count\r\n      ServiceCount ++;\r\n      /// Create the product\r\n      services[ServiceCount] = Service(ServiceCount, _name, _price, payable(msg.sender), _info, _quantity);\r\n      /// Trigger an event\r\n      emit ServiceCreated(ServiceCount, _name, _price, msg.sender, _info, _quantity);\r\n    }\r\n\r\n\t\t/// @notice Registered Users can purchase health services that has been created only can be access by approved users\r\n\t\t/// @param _id the service ID to be purchased\r\n\t\t/// @param _id the number of service package to be purchased\r\n\t\t/// @dev Check for exact payment and exact amount set in the front-end to avoid having to send ETH back to sender\r\n    function purchaseService(uint256 _id, uint256 _quantity) public payable onlyMember{\r\n      /// Fetch the service\r\n      Service memory _service = services[_id];\r\n      /// Fetch the owner\r\n      address payable _staff = _service.staff;\r\n      /// Make sure the service has a valid id\r\n      require(_service.pid > 0 && _service.pid <= ServiceCount, 'Invalid Product ID');\r\n\t\t\t/// Make sure the service quantity is not 0\r\n      require(_service.quantity > 0, 'Insufficient Stock!');\r\n\t\t\t/// Make sure the purchase quanity is enough \r\n      require(_service.quantity >= _quantity, 'Insufficient Stock!');\r\n      /// Require that there is enough Ether in the transaction\r\n      require(msg.value >= ((_service.price * _quantity) * (1 ether)), 'Not enough ether in Wallet');\r\n      /// Require that the buyer is not the seller\r\n      require(_staff != msg.sender,'Invalid Purchase');\r\n      /// Incrmement orderCount\r\n      orderCount++;\r\n      /// Reduce the quantity of the product\r\n      services[_id].quantity =  _service.quantity - 1;\r\n      /// Transfer ownership to the buyer\r\n      orders[orderCount] = Order(orderCount, _staff, payable(msg.sender), 'Ordered', _service.pid, _quantity);\r\n      /// Pay the contract by sending them Ether\r\n      payable(msg.sender).transfer(msg.value);\r\n      /// Trigger an event\r\n      emit ServicePurchased(orderCount, _staff, payable(msg.sender), 'Ordered', _service.pid, _quantity);\r\n    }\r\n\r\n\t  /// @notice Medical Staffs can upload or edit the medical data.\r\n    function addMedicalData(string memory _name) public returns (bool) {\r\n\t\t\t/// TODO: Create a new Patient data and put in array\r\n    \t/// TODO: Increment the ID by one\r\n    \t/// TODO: Emit the appropriate event\r\n    \t/// TODO: return true\r\n\t\t}\r\n\r\n\t\t/// @notice Medical Staffs/Patient have to identify themselves in order to securely access to the medical data.\r\n  \tfunction medicalData(uint sku) public {\r\n \t\t\t/// TODO: Add modifiers to check the person calling this function is the Staffs/Patient. \r\n\t\t\t/// TODO: call the event associated with this function!\r\n\t\t\t/// TODO: Present the data to user if user is Staff\r\n\t\t\t/// TODO: Present the data to user if payment has been completed\r\n\t\t}\r\n\r\n\t\t/// @notice Patient can authorize 3rd party access to securely access to the medical data.\r\n\t\tfunction signMedicalData() public{\r\n  \t\t/// TODO: it should Create a SHA3 hash of the message\r\n  \t\t/// TODO: Verify that the message's signer is the owner of the medical data\r\n\t\t\t/// TODO: Signs the messageHash with the Hospital account\r\n  \t\t/// TODO: set the state to Signed. \r\n\t\t}\r\n\r\n\t\t/// @notice Verify the authenticity of the medical record using digital signature that uniquely identifies the issuer of the record.\r\n\t\tfunction verify() public {\r\n  \t\t/// TODO: It should recover signer address from a message by using their signature\r\n  \t\t/// TODO: Recover signer from signature and hash\r\n  \t\t/// TODO: Compare recovered signer to claimed signer\r\n\t\t}\r\n\r\n\t\t/// @notice Withdraw contract funds\r\n    /// @dev Only the contract owner can call this\r\n\t  function withdraw() public onlyOwner {\r\n    /// TODO: withdraw any funds from contract\r\n    }\r\n\r\n}",
  "sourcePath": "C:\\Users\\Samuel\\Desktop\\Blockchain\\Blockchain Developer Bootcamp 2021\\blockchain-developer-bootcamp-final-project\\contracts\\BMS.sol",
  "compiler": {
    "name": "solc",
    "version": "0.8.5+commit.a4f2e591.Emscripten.clang"
  },
  "schemaVersion": "3.4.3",
  "updatedAt": "2021-11-30T15:52:07.418Z",
  "networkType": "ethereum",
  "devdoc": {
    "author": "Samuel Tan",
    "details": "Inherit from both OpenZeppelin Ownable and AccessControl contracts to implement role-based and owner-only functions ",
    "events": {
      "LogPaymentReceived(address,uint256)": {
        "params": {
          "accountAddress": "buyer's address",
          "amount": "amount to be sent"
        }
      },
      "RoleGranted(bytes32,address)": {
        "params": {
          "role": "DEFAULT_ADMIN_ROLE role to be granted",
          "sender": "the user's address"
        }
      },
      "ServiceCreated(uint256,string,uint256,address,string,uint256)": {
        "params": {
          "info": "service information",
          "name": "service name",
          "pid": "service id",
          "price": "service price",
          "quantity": "service quantity",
          "staff": "the medical staff/owner address"
        }
      },
      "ServicePurchased(uint256,address,address,string,uint256,uint256)": {
        "params": {
          "buyer": "seller's address",
          "oid": "order id",
          "pid": "service id",
          "quantity": "service quantity",
          "seller": "owner's address",
          "status": "to be set as Sold"
        }
      },
      "UpdatedMessages(string,string)": {
        "params": {
          "newStr": "new message",
          "oldStr": "old message"
        }
      },
      "UserCreated(uint256,string,address,bool)": {
        "params": {
          "created": "true or false",
          "name": "user name",
          "uid": "user id"
        }
      }
    },
    "kind": "dev",
    "methods": {
      "addMember(address)": {
        "params": {
          "account": "user's address"
        }
      },
      "constructor": {
        "details": "need to set the message and owner address in 2_deploy_contracts.js before deployment"
      },
      "createService(string,uint256,string,uint256)": {
        "details": "Check for price to be greater than 0 ",
        "params": {
          "_info": "short description of the service",
          "_name": "the name of the service",
          "_price": "the price of the service",
          "_quantity": "the number of this servicee to be created"
        }
      },
      "createUser(string)": {
        "params": {
          "_name": "the name that will be set by the user"
        }
      },
      "getRoleAdmin(bytes32)": {
        "details": "Returns the admin role that controls `role`. See {grantRole} and {revokeRole}. To change a role's admin, use {_setRoleAdmin}."
      },
      "grantRole(bytes32,address)": {
        "details": "Grants `role` to `account`. If `account` had not been already granted `role`, emits a {RoleGranted} event. Requirements: - the caller must have ``role``'s admin role."
      },
      "hasRole(bytes32,address)": {
        "details": "Returns `true` if `account` has been granted `role`."
      },
      "isMember(address)": {
        "params": {
          "account": "user's address"
        }
      },
      "owner()": {
        "details": "Returns the address of the current owner."
      },
      "purchaseService(uint256,uint256)": {
        "details": "Check for exact payment and exact amount set in the front-end to avoid having to send ETH back to sender",
        "params": {
          "_id": "the number of service package to be purchased"
        }
      },
      "renounceOwnership()": {
        "details": "Leaves the contract without owner. It will not be possible to call `onlyOwner` functions anymore. Can only be called by the current owner. NOTE: Renouncing ownership will leave the contract without an owner, thereby removing any functionality that is only available to the owner."
      },
      "renounceRole(bytes32,address)": {
        "details": "Revokes `role` from the calling account. Roles are often managed via {grantRole} and {revokeRole}: this function's purpose is to provide a mechanism for accounts to lose their privileges if they are compromised (such as when a trusted device is misplaced). If the calling account had been revoked `role`, emits a {RoleRevoked} event. Requirements: - the caller must be `account`."
      },
      "revokeRole(bytes32,address)": {
        "details": "Revokes `role` from `account`. If `account` had been granted `role`, emits a {RoleRevoked} event. Requirements: - the caller must have ``role``'s admin role."
      },
      "supportsInterface(bytes4)": {
        "details": "See {IERC165-supportsInterface}."
      },
      "transferOwnership(address)": {
        "details": "Transfers ownership of the contract to a new account (`newOwner`). Can only be called by the current owner."
      },
      "update(string)": {
        "params": {
          "newMessage": "the new MOTD to be set"
        }
      },
      "withdraw()": {
        "details": "Only the contract owner can call this"
      }
    },
    "title": "Contract for Blockchain Medical System",
    "version": 1
  },
  "userdoc": {
    "events": {
      "LogPaymentReceived(address,uint256)": {
        "notice": "Emitted payment has been received"
      },
      "RoleGranted(bytes32,address)": {
        "notice": "Emitted user has been approved and grant new role"
      },
      "ServiceCreated(uint256,string,uint256,address,string,uint256)": {
        "notice": "Emitted a health/medical service has been created"
      },
      "ServicePurchased(uint256,address,address,string,uint256,uint256)": {
        "notice": "Emitted a health/medical service has been purchased"
      },
      "UpdatedMessages(string,string)": {
        "notice": "Emitted the MOTD has been updated"
      },
      "UserCreated(uint256,string,address,bool)": {
        "notice": "Emitted a new user has been created"
      }
    },
    "kind": "user",
    "methods": {
      "ServiceCount()": {
        "notice": "Struts mapping for services created"
      },
      "addMedicalData(string)": {
        "notice": "Medical Staffs can upload or edit the medical data."
      },
      "addMember(address)": {
        "notice": "Owner to set register user account as approved user."
      },
      "constructor": {
        "notice": "Set the MOTD and assign owner with DEFAULT_ADMIN_ROLE during deployment of the contract"
      },
      "createService(string,uint256,string,uint256)": {
        "notice": "Medical Staffs (Owner) can create health services which can be purchased by the users only can be access by the Owner"
      },
      "createUser(string)": {
        "notice": "Medical Staffs/Patient will have to register themselves and onboard somehow on the contract"
      },
      "isMember(address)": {
        "notice": "Return `true` if the `account` is Registered."
      },
      "medicalData(uint256)": {
        "notice": "Medical Staffs/Patient have to identify themselves in order to securely access to the medical data."
      },
      "message()": {
        "notice": "The MOTD message"
      },
      "orderCount()": {
        "notice": "Struts mapping for Orders created "
      },
      "purchaseService(uint256,uint256)": {
        "notice": "Registered Users can purchase health services that has been created only can be access by approved users"
      },
      "receiveMoney()": {
        "notice": "Performs the balance deduction from sender's wallet"
      },
      "signMedicalData()": {
        "notice": "Patient can authorize 3rd party access to securely access to the medical data."
      },
      "update(string)": {
        "notice": "A public function that accepts a string argument and updates the `MOTD` storage variable. Only accessibe by Owner"
      },
      "userCount()": {
        "notice": "Struts mapping for users created"
      },
      "verify()": {
        "notice": "Verify the authenticity of the medical record using digital signature that uniquely identifies the issuer of the record."
      },
      "withdraw()": {
        "notice": "Withdraw contract funds"
      }
    },
    "notice": "Allows Medical and non-medical users to purchase medical services and service management",
    "version": 1
  }
}