{
  "contractName": "BMS",
  "abi": [
    {
      "inputs": [
        {
          "internalType": "address",
          "name": "_user",
          "type": "address"
        }
      ],
      "name": "registerUser",
      "outputs": [],
      "stateMutability": "nonpayable",
      "type": "function"
    },
    {
      "inputs": [
        {
          "internalType": "string",
          "name": "_name",
          "type": "string"
        }
      ],
      "name": "addMedicalData",
      "outputs": [
        {
          "internalType": "bool",
          "name": "",
          "type": "bool"
        }
      ],
      "stateMutability": "nonpayable",
      "type": "function"
    },
    {
      "inputs": [
        {
          "internalType": "uint256",
          "name": "sku",
          "type": "uint256"
        }
      ],
      "name": "medicalData",
      "outputs": [],
      "stateMutability": "nonpayable",
      "type": "function"
    },
    {
      "inputs": [],
      "name": "signMedicalData",
      "outputs": [],
      "stateMutability": "nonpayable",
      "type": "function"
    },
    {
      "inputs": [],
      "name": "verify",
      "outputs": [],
      "stateMutability": "nonpayable",
      "type": "function"
    },
    {
      "inputs": [
        {
          "internalType": "uint256",
          "name": "sku",
          "type": "uint256"
        }
      ],
      "name": "Payment",
      "outputs": [],
      "stateMutability": "payable",
      "type": "function",
      "payable": true
    }
  ],
  "bytecode": "0x608060405234801561001057600080fd5b50610444806100206000396000f3fe6080604052600436106100555760003560e01c80632199d5cd1461005a5780632a26ac93146100835780634bf1d6cb1461009a57806375ee3e7c146100c3578063d73298c514610100578063fc735e991461011c575b600080fd5b34801561006657600080fd5b50610081600480360381019061007c91906101b9565b610133565b005b34801561008f57600080fd5b50610098610136565b005b3480156100a657600080fd5b506100c160048036038101906100bc919061021c565b610138565b005b3480156100cf57600080fd5b506100ea60048036038101906100e5919061038f565b61013b565b6040516100f791906103f3565b60405180910390f35b61011a6004803603810190610115919061021c565b610142565b005b34801561012857600080fd5b50610131610145565b005b50565b565b50565b6000919050565b50565b565b6000604051905090565b600080fd5b600080fd5b600073ffffffffffffffffffffffffffffffffffffffff82169050919050565b60006101868261015b565b9050919050565b6101968161017b565b81146101a157600080fd5b50565b6000813590506101b38161018d565b92915050565b6000602082840312156101cf576101ce610151565b5b60006101dd848285016101a4565b91505092915050565b6000819050919050565b6101f9816101e6565b811461020457600080fd5b50565b600081359050610216816101f0565b92915050565b60006020828403121561023257610231610151565b5b600061024084828501610207565b91505092915050565b600080fd5b600080fd5b6000601f19601f8301169050919050565b7f4e487b7100000000000000000000000000000000000000000000000000000000600052604160045260246000fd5b61029c82610253565b810181811067ffffffffffffffff821117156102bb576102ba610264565b5b80604052505050565b60006102ce610147565b90506102da8282610293565b919050565b600067ffffffffffffffff8211156102fa576102f9610264565b5b61030382610253565b9050602081019050919050565b82818337600083830152505050565b600061033261032d846102df565b6102c4565b90508281526020810184848401111561034e5761034d61024e565b5b610359848285610310565b509392505050565b600082601f83011261037657610375610249565b5b813561038684826020860161031f565b91505092915050565b6000602082840312156103a5576103a4610151565b5b600082013567ffffffffffffffff8111156103c3576103c2610156565b5b6103cf84828501610361565b91505092915050565b60008115159050919050565b6103ed816103d8565b82525050565b600060208201905061040860008301846103e4565b9291505056fea26469706673582212207a81894ffb29861f92984daa1798cdc249c2600e9a2537cfdfa7771fca60047164736f6c63430008090033",
  "immutableReferences": {},
  "source": "// SPDX-License-Identifier: MIT\npragma solidity ^0.8.5;\n\ncontract BMS {\n\n  // Medical Staffs/Patient will have to register themselves somehow on the contract\n\tfunction registerUser(address _user) public {\n\n\t\t// registers user\n\n\t}\n\n//2. Medical Staffs can upload or edit the medical data.\n  function addMedicalData(string memory _name) public returns (bool) {\n\t\t// 1. Create a new Patient data and put in array\n    // 2. Increment the ID by one\n    // 3. Emit the appropriate event\n    // 4. return true\n\t}\n\n//3. Medical Staffs/Patient have to identify themselves in order to securely access to the medical data.\n  function medicalData(uint sku) public {\n  // 1. Add modifiers to check:\n  //    - the person calling this function is the Staffs/Patient. \n\t// 2. call the event associated with this function!\n\t// 3. Present the data to user if user is Staff\n\t// 4. Present the data to user if payment has been completed\n\t}\n\n//4. Patient can authorize 3rd party access to securely access to the medical data.\nfunction signMedicalData() public{\n  // 1. it should Create a SHA3 hash of the message\n  // 2. Verify that the message's signer is the owner of the medical data\n\t// 3. Signs the messageHash with the Hospital account\n  // 4. set the state to Signed. \n}\n\n//5. Verify the authenticity of the medical record using digital signature that uniquely identifies the issuer of the record.\nfunction verify() public {\n  // 1. it should recover signer address from a message by using their signature\n  // 2. Recover signer from signature and hash\n  // 3. Compare recovered signer to claimed signer\n}\n\n//6. Medical bills payment can be issued by the Medical Staffs and paid in cryptocurrency by the Patient.\n  function Payment(uint sku) public payable {\n  // 1. it should be payable in order to receive refunds\n  // 2. this should transfer money to the Hospital, \n  // 3. set the payer as the person who called this transaction, \n  // 4. set the state to Paid. \n  // 5. this function should use 3 modifiers to check \n  //    - if the Bill is pending payment, \n  //    - if the payer paid enough, \n  //    - check the value after the function is called to make \n  //      sure the buyer is refunded any excess ether sent. \n  // 6. call the event associated with this function!\n\t}\n}",
  "sourcePath": "C:\\Users\\Samuel\\Desktop\\Blockchain\\Blockchain Developer Bootcamp 2021\\blockchain-developer-bootcamp-final-project\\contracts\\BMS.sol",
  "compiler": {
    "name": "solc",
    "version": "0.8.9+commit.e5eed63a.Emscripten.clang"
  },
  "schemaVersion": "3.4.3",
  "updatedAt": "2021-11-09T15:43:27.376Z",
  "networkType": "ethereum",
  "devdoc": {
    "kind": "dev",
    "methods": {},
    "version": 1
  },
  "userdoc": {
    "kind": "user",
    "methods": {},
    "version": 1
  }
}